:020000040800F2
:10000000C0100020090B0008C1280008DD0A000804
:10001000DD0A0008DD0A0008DD0A00080000000013
:10002000000000000000000000000000E9060008D9
:10003000DD0A00080000000085060008B11600086F
:10004000A5070008A5070008A5070008A5070008E0
:10005000A5070008A5070008A5070008A5070008D0
:10006000A5070008A5070008A5070008A5070008C0
:10007000A5070008A5070008A5070008A5070008B0
:10008000A5070008A5070008A5070008A5070008A0
:10009000A5070008A5070008A5070008A507000890
:1000A000A5070008A5070008A5070008A507000880
:1000B000A5070008A5070008A5070008A507000870
:1000C000A5070008A5070008A5070008A507000860
:1000D000A5070008A5070008A5070008A507000850
:1000E000A5070008A5070008A5070008A507000840
:1000F000A5070008A5070008A5070008A507000830
:10010000A5070008A5070008A5070008A50700081F
:10011000A5070008A5070008A5070008A50700080F
:10012000A5070008A5070008A5070008A5070008FF
:10013000A5070008A5070008A5070008A5070008EF
:10014000A5070008A5070008A5070008A5070008DF
:10015000A5070008A5070008A5070008A5070008CF
:10016000A5070008A5070008A5070008A5070008BF
:10017000A5070008A5070008A5070008A5070008AF
:10018000A5070008A5070008A5070008A50700089F
:10019000A5070008A5070008A5070008A50700088F
:1001A000A5070008A5070008A5070008A50700087F
:1001B000A5070008A5070008A5070008A50700086F
:1001C000A5070008A5070008A5070008A50700085F
:0801D000A5070008A5070008BF
:1001D80053B94AB9002908BF00281CBF4FF0FF31A6
:1001E8004FF0FF3000F00CB8ADF1080C6DE904CE0B
:1001F80000F008F8DDF804E0DDE9022304B07047F8
:10020800704700BF2DE9F04786468C460846089E91
:10021800154674461946002B40F0C2808542B2FA52
:1002280082F245D94AB1C2F1200300FA02FC2EFA43
:1002380003F3954043EA0C0C94404FEA154EA8B2DC
:10024800BCFBFEF8230C0EFB18CC08FB00F943EAB4
:100258000C43994528D9EB1808F1FF3704D2994582
:1002680002D9A8F102072B44A3EB0903A4B2B3FBFC
:10027800FEFC0EFB1C330CFB00F044EA0344A042D6
:1002880014D92C190CF1FF3304D2A04202D9ACF1D5
:1002980002032C44241A43EA07401EB1D440002329
:1002A80034607360BDE8F0874746DDE76346F1E7F1
:1002B80092BB431B01214FEA154EAFB2B3FBFEFCC4
:1002C800200C0EFB1C330CFB07F840EA034398454F
:1002D80062D9EB180CF1FF3004D2984502D9ACF181
:1002E80002002B44A3EB0803A4B2B3FBFEFC0EFBF5
:1002F8001C330CFB07F744EA0344A7424ED92C19D8
:100308000CF1FF3304D2A74202D9ACF102032C440A
:10031800E41B43EA0040C0E7C2F1200320FA03F1DE
:10032800954090402EFA03F303434FEA154EAFB2BF
:10033800B1FBFEFC0EFB1C10190C0CFB07F841EA84
:100348000041884504FA02F422D969180CF1FF30FB
:1003580004D2884502D9ACF102002944A1EB080176
:100368009BB2B1FBFEFC0EFB1C110CFB07F743EA2A
:1003780001439F420ED9EB180CF1FF3104D29F4282
:1003880002D9ACF102012B44DB1B41EA004192E7A0
:100398006046E3E76146F7E76046A3E76346B7E7E9
:1003A800834206D916B9002108467BE7C6E900E072
:1003B800F9E7B3FA83F78FB9834201D3724508D8B6
:1003C800BEEB020460EB030301209C461EB900212A
:1003D80068E73846FAE7C6E9004CF8E7C7F1200CA9
:1003E800BB4022FA0CF41C432EFA0CF120FA0CF351
:1003F800B84001434FEA14490EFA07F5B3FBF9F880
:100408001FFA84FE09FB18300B0C08FB0EFA43EAAE
:1004180000439A4502FA07F240D9E31808F1FF3081
:1004280004D29A4502D9A8F102002344A3EB0A0397
:1004380089B2B3FBF9F809FB183308FB0EFE41EA51
:1004480003418E452CD9611808F1FF3304D28E453B
:1004580002D9A8F10203214443EA0040A0FB029814
:10046800A1EB0E014145CE46434602D306D14D4588
:1004780004D2B9EB020E68EB04030138002EA6D0B3
:10048800B5EB0E0261EB030101FA0CFC22FA07F34B
:100498004CEA0303F940C6E9003198E74046C5E74E
:1004A8004346D9E708B50349034801F025FF002072
:1004B80008BD00BF7C3800088A380008014B1B685B
:1004C800184700BF00000020014B1860704700BFAC
:1004D8000000002030B585B004460D4610220021EA
:1004E800684602F051FE02238DF802302A46044B7A
:1004F80001932146684601F011FF05B030BD00BFE9
:10050800C504000880B505460E461746984601F012
:1005180047FD034602F040FEDFF81890044649F80C
:100528000030424630463946A84754F8090000F0E2
:10053800FDFA00BF080000000D4B0E4A1A600E4A73
:10054800536843F0010353600C4B9A6D42F080529C
:100558009A659B6D0A4A82B003F080530193019B10
:100568009368002043F48043936002B0704700BF53
:10057800500000200024F400002004E00010024095
:1005880000700040014910220A60704710ED00E039
:1005980072B6404080F31188BFF36F8FBFF34F8F5F
:1005A80030BF62B6BFF36F8F704700BF40B20028FC
:1005B80007DB044A4109012300F01F00834042F889
:1005C8002130704700E100E040B20028A8BF00F1E8
:1005D800604001F10101B8BF064B4FEA0111ACBF01
:1005E80000F5614000F00F00C9B2B4BF195480F89B
:1005F8000013704714ED00E030BFFFF7FDBF00BFE8
:100608000F4A08B50F4B22F07F029A60BFF34F8F55
:10061800BFF36F8FD3F8882022F47002C3F88820C4
:10062800EFF3148323F0040383F31488BFF36F8F6D
:1006380001F0F2F901F01AFD00F056FA01F03EFA65
:100648000000000800ED00E0094A0A4993680968BB
:100658009967094958674B6843F080534B600023FA
:1006680083F31188BFF36F8F9368986F704700BF4B
:10067800C80200204838000800ED00E015498A68E3
:100688004FF030001044EFF3098C80E8F01F102081
:1006980080F31288BFF36F8F0F4F4FF000664A69DF
:1006A8008A603E604FF07004141920680B4C20607B
:1006B800506F0023536780F3118804B5104600F08B
:1006C80057FABDE8044002F1300090E8F01F8CF3BF
:1006D80009887047C802002004ED00E0B801002036
:1006E8001EF0040F0CBFEFF30880EFF30980816957
:1006F80011F8021C0229FFD001B502F0D5F801BD9E
:1007080042F8203C009B42F81C3C0A49019B42F8F5
:10071800183C029B42F8143C21F001014FF0807311
:1007280042F8043C42F8081C0023203A026543675B
:10073800704700BF0D050008094A0346906870B16C
:1007480013F1160F006E05D0A0F140029A4205D8A9
:10075800834203D2814228BF00207047002070479F
:10076800C802002008B514460A4A0B4B9060026F75
:100778001A600D4600F0FCF9204685F3098800212F
:1007880063B681F31188BFF36F8F00220023FFF750
:10079800B9FE00BFC8020020B801002001B5EFF380
:1007A8000580A0F110004FEAC0000449014409C9BE
:1007B8009847BDE801400249084700002C3300086B
:1007C80029080008114B124A2DE9F041D518DFF825
:1007D8004480013DB5FBF3F55D430F4B08EB030483
:1007E800013CB4FBF3F403FB04540E1B07460B490E
:1007F800304602F0BBFC701942460021083E02F068
:10080800C3FC3E6704F10800BDE8F0810100000068
:100818000000000004000000040000007C3600080E
:10082800044B99685869884203D003494FF08052B5
:100838000A607047C802002004ED00E070B5264B3E
:1008480015469A6A12F0100F9A6A14BF11241024E0
:1008580012F0080F9A6A18BF1224920706460AD5A2
:10086800586B9A6A140634D519B19A6A22F0800234
:100878009A62132401E06FF01500174B9A6A12F080
:10088800010F9A6A18BF142412F0200F9A6A18BF31
:100898001524D20602D49B6A9B070AD50E4B5B68C7
:1008A800190506D53146FFF747FF10B180F30988CF
:1008B8000224094B9A6A920642BF5A6A22F40052ED
:1008C8005A629A6A42F0FF029A6200232B7020460D
:1008D80070BD6FF01500CCE700ED00E0134B9A6A8D
:1008E80012F0007F9A6A14BF1E201D2012F0807F2C
:1008F8009A6A18BF1F2012F4002F9A6A18BF212085
:1009080012F4802F9A6A18BF222012F4003F9A6AC4
:1009180018BF232012F4803F9A6A6FEA02426FEAF6
:1009280012429A6218BF2420704700BF00ED00E011
:1009380010B5194B0246986A9C6A10F4805F14BF80
:100948001720162014F4006F9C6A18BF1820A405FD
:1009580009D5986B986A000404D51AB19A6A22F4EA
:1009680000429A6219200C4B9A6A12F4806F9A6AB4
:1009780018BF1A20D2050CD49B6A13F4005F18BF65
:100988001C20054A936A43F47F43936200230B704B
:1009980010BD1B20F5E700BF00ED00E0F0B5484BA7
:1009A8005B688BB00446C3F30803002585F3118800
:1009B800BFF36F8F02F07F40B0F17F4F11D102F08B
:1009C8000C0008280DD010074CBF0C46012500224A
:1009D800033B8DF80720032B05D8DFE803F02463D9
:1009E80067602C46F3E700239DF80720CAB902AEDA
:1009F80004F1200720686168324603C20834BC420B
:100A08001646F7D1099A002D54D0C2F3080121B92E
:100A18006FEA52226FEA4222099202A9184601F0AF
:100A280041FF0BB0F0BD264BDA6A9107DBD4DA6AD6
:100A3800002AD8DBDA6A5200D5D55A69A16942F48E
:100A480080725A61BFF34F8FBFF36F8F5A6931F8C5
:100A5800021C22F480725A61BFF34F8FBFF36F8F6D
:100A68004DF6027291420AD09A6AD2B24AB10DF199
:100A7800070201212046FFF7E1FE0346B4E7236899
:100A8800B2E79A6A12F47F4F05D00DF107010120F1
:100A9800FFF74EFFF1E79B6AB3F5803FA3D3FFF75B
:100AA8001DFFEAE70DF107020021E3E70DF1070159
:100AB8000020EDE722F4FF7222F00102ACE700BF4C
:100AC80000ED00E0024A536943F010035361704798
:100AD80000ED00E0EFF30880EFF3098101B57246FD
:100AE800FFF75CFF01BD00BF044800231021C218B6
:100AF8000133662B82F80013F9D1704700E100E05A
:100B0800102080F3118808484FF40461401880F3DE
:100B18000988EFF314800221084380F31488BFF397
:100B28006F8FFFF76DFD000000030020084B9B68E6
:100B380083420BD1EFF3058343B1064B5A6842F069
:100B480080525A605A6A22F400425A6201F02EBA60
:100B5800C802002000ED00E0024B034A03480121CF
:100B680000F070B800000220000000208436000861
:100B7800026E054B403A1A60044A4021C3E901124B
:100B88001846012100F068B8BC01002000000B15D0
:100B9800F0B5204E00258D4239DA446874B353B15C
:100BA80004F1FF3C14EA0C0F2FD11F2C2DD9076834
:100BB8001CEA070F29D1202C0768D0F808C05FFA73
:100BC80082FE1ED9B4F1004F1DD8013CB4FA84F45A
:100BD800C4F11F046400BEF1070F4CEA040C14D8DA
:100BE80027F01F04144344F01004C6F89820C6F8F0
:100BF8009C404CF00104C6F8A040013201350C308D
:100C0800C9E70824E7E73E24E5E76FF01502104638
:100C1800F0BD00BF00ED00E0044B0522C3F89420AE
:100C2800BFF34F8FBFF36F8F704700BF00ED00E039
:100C3800BFF35F8F024B0022C3F89420704700BFB8
:100C480000ED00E010B5034C01232278FFF7A0FF68
:100C5800207010BDF802002008B5094A0023127858
:100C6800FFF796FF10F1160F02D0064A072800DD9D
:100C780008BDC2F89800C2F8A0300130F6E700BFFE
:100C8800F802002000ED00E014490868082810B5B3
:100C980021D8FFF7CDFF124C49680022904201F19C
:100CA8000C0105D10F4B1870FFF7B6FF002010BDDF
:100CB800C4F8982051F80C3C23F01F03134343F069
:100CC8001003C4F89C3051F8043C43F00103C4F805
:100CD800A0300132E2E74FF0FF30E8E79436000831
:100CE80000ED00E0F802002008B5024B1B689847A9
:100CF800002008BDC8010020034B044A18609378FF
:100D080043F0020393707047C801002004000020DC
:100D180008B50649064821F00701C1F1005202F55D
:100D2800003201F07FFD002008BD00BF1311002034
:100D3800001100202DE9F0410F4E104F0546002408
:100D48004FF001082B7853FA84F01F280DDC7269E4
:100D580008FA00F333EA020207D1736157F830301A
:100D68001BB107EBC002516898476A780134E3B2B7
:100D78009A42E7D2BDE8F08100040140CC0100208E
:100D8800044B184400230133994200F8012BFADC84
:100D9800704700BF5C00002010B4064B06490246AD
:100DA8000C6818560123934023430B6010BCFFF7CF
:100DB800FDBB00BF5C000020000401401F2806DCCA
:100DC800034901220B68824023EA02030B60704743
:100DD8000004014003292AD8DFE801F0020E141F9D
:100DE800134B01229968824021EA02019960D9686F
:100DF80021EA0202DA6070470D4B012299688240AD
:100E08001143F3E70A4B0122D96882401143D960A4
:100E1800996821EA02029A607047012303FA00F0F8
:100E2800034B9A6802439A60DA681043D8607047A7
:100E38000004014030B50A4B53F830408C4204D1CD
:100E480003EBC0056D68954205D034B943F83010FE
:100E580003EBC0035A60002030BD6FF00F00FBE7C2
:100E6800CC010020034B002243F8302003EBC003E1
:100E78005A607047CC01002010B5214B18680B68E8
:100E8800082B144616D00B2B0BD89BB1013B0A2B11
:100E980010D8DFE803F0163331162E16170F1A256F
:100EA8002500582B0ED008D84C2B0BD0502B09D02E
:100EB800482B07D06FF0850006E05C2B02D0602B32
:100EC800F7E700202060002010BD00F0BBF80623E3
:100ED800B0FBF3F0552358430723B0FBF3F0F1E7D9
:100EE80000F0B0F80623B0FBF3F055235843400850
:100EF800E8E74FF4FA40E5E70248E3E70248E1E7AC
:100F08005000002000366E01006CDC0270B5484CC1
:100F1800484E00F0B5F800F089FCA368464AC3F3D0
:100F28000313D35C03F01F0320FA03F5B54202D87C
:100F3800424800F0B1FC236823F48023236023682F
:100F480043F48033236023689A03FCD5D4F89430A3
:100F580043F00103C4F89430D4F894309B07FBD5D0
:100F6800D4F8983043F00103C4F89830D4F8983096
:100F78009807FBD5A36803F00C030C2B18D1236842
:100F8800590506D4236843F48073236023685A05FF
:100F9800FCD5A36823F0030343F00103A360A3680F
:100FA80003F00C03042BFAD1A36823F0F003A36029
:100FB800236823F080732360E36823F0605323F4ED
:100FC800003343F06053E360E36843F48033E36045
:100FD800E36823F4C003E360E36843F48013E36049
:100FE80000F034F8236843F08073236023689B0182
:100FF800FCD5A36823F0F003A360A36843F00303C0
:10100800A360A36803F00C030C2BFAD1B54202D9F4
:101018000A4800F041FC0A4B084A1A60A36823F406
:10102800E063A360A36823F46053A360002070BD4D
:10103800001002407FFE210A9639000880FE210A2E
:10104800500000200048704700366E010A4AD2F866
:10105800803023F48073C2F8803002F5D032074B19
:10106800D1680B4043F4AA4343F05303D360D368D9
:1010780043F08073D3607047007000400C80FFF924
:10108800064B9A6D42F080529A659B6D82B003F0D0
:1010980080530193019B02B0704700BF00100240CB
:1010A80008B5074801F09FFF38B10648FFF724FE4E
:1010B8000448FFF709FA002008BD6FF01200FBE7AB
:1010C80004330008D11000080A2838B5074D044633
:1010D80004D1AB680D215B6828469847AB68034884
:1010E8005B68E1B29847204638BD00BF043300086A
:1010F80038B5036904465860084D284601F073FF67
:1011080040B16168AB680C311B682846984700EA13
:10111800E07038BD6FF01200FBE700BF3C320008FA
:10112800F7B51746B7F5001F466802690C461D4615
:1011380028D101F0030304339B000F229A4042EAAE
:10114800910202F003030233354951F82310130CBE
:1011580093FAA3F3B3FA83F301EA124203F01F03ED
:1011680022FA03F3B2689A4209D12046FFF726FE15
:101178002046FFF777FE00212046FFF72BFE0020D0
:1011880003B0F0BDB7F5800F44D026492046FFF7DD
:1011980051FE002841D1244AB66892E803006B4604
:1011A80083E8030021488268194612689047D8B935
:1011B80004F0030304339B000F21994041EA940192
:1011C80001F003039B0003F1804303F580330A0C0D
:1011D800986892FAA2F2B2FA82F202F01F0220EAAA
:1011E800114196400E439E60B5F1806F0ED0B5F167
:1011F800C06F0DD005F17E43594259414900204640
:10120800FFF7E8FD2046FFF7C7FDB8E70121F6E73D
:101218000321F4E76FF08500B2E76FF00F00AFE746
:10122800000001404F2C00087C3600083C320008C2
:101238002DE9F0471E4F044600EBC1060025B442D5
:1012480001D1002014E02068C30600F01F0911D462
:10125800656845F02005C0F3471AC0F343200A2803
:1012680023D857F82080B8F1000F0DD16FF0120085
:10127800BDE8F087B9F1100F04D0B9F1110FEAD128
:101288006568E8E73025E6E7404601F0ACFE00284F
:10129800ECD04B462A460AF00F01404601F0EAFC22
:1012A800002804F10804CADAE2E76FF01500DFE766
:1012B80064370008012912D0022907D089B90068CB
:1012C800094BC01A18BF0120000370470068064B7D
:1012D800984214BF4FF440504FF40050704700201C
:1012E80070474FF4005070470080004070B51D46AD
:1012F800094B002633F812203346FEF769FF09022E
:1013080041EA10616C08000220182A46334641F170
:101318000001FEF75DFF70BD643800082DE9F34158
:101328000369466818688368DB680C46F168C3B1CE
:1013380001AA9847002814DB3368244A934235D120
:10134800019FDFF88C8000252346AAB23846002189
:10135800FFF7CCFFA0F54070404505D901350C2DAD
:10136800F2D102B0BDE8F081184AD36A23F00F0326
:101378002B43D3623668002CF3D0164B33F8152074
:10138800002319463846FEF723FF090241EA106197
:1013980063080002C01822464FF0000341F1000123
:1013A800FEF716FFC0F31300F060DAE71A6822F4BC
:1013B80000421A603268019B002CD2D003EB540320
:1013C800B3FBF4F39BB2D360CBE700BF00800040CF
:1013D800FFFC0F00643800082DE9F8430A79036917
:1013E80045685F68012A06460C465CD0931ED3F117
:1013F800000848EB03084FEA882861792846FFF778
:1014080059FF94F80690B9F1020F03464ED0B9F18E
:10141800040F4FD0002A57D0033A012A4CD94FF471
:101428008050B3F5805F51D0B3F5405F50D0002BAA
:101438000CBF0123032399423ED1414601F07AFCB7
:10144800814539D1E379CBB1012B43D12B68234AAC
:10145800934213D0A2F5744293420FD002F58062F2
:1014680093420BD002F58062934207D002F5806266
:10147800934203D002F5405293421DD12A68136863
:1014880023F0010313602146304601F010FD2A685D
:10149800136843F00103136094E8030087E803002E
:1014A8000020BDE8F8834FF4C068A6E73AB94FF0CA
:1014B8008050B6E7002AB2D06FF08500F1E7033A12
:1014C800012AF9D90020ACE71046AAE70023B2E7C1
:1014D8000223B0E7032BB9D0EEE700BF0038014084
:1014E80073B50669446805465148306001F07BFDD4
:1014F80018B96FF0120002B070BD3068E1688368F7
:101508001B6898470028F6DBE06901AA002101F072
:10151800C6FB0028EFDB019B002219791868FFF74A
:1015280087FE0028E7DB6C682B6922685E68136811
:1015380023F001031360606801F055FD0028D8D03E
:10154800D4E901018368DB6803B19847226852E84F
:10155800003F43F00C0342E800310029F7D131463F
:10156800284601F0A4FC237D23B12268936843F048
:1015780008039360637D23B12268536843F40043F2
:101588005360A37D23B12268536843F480335360CA
:10159800E37D23B12268536843F400335360227E0D
:1015A8002368002A33D0234A934213D0A2F5744209
:1015B80093420FD002F5806293420BD002F580620D
:1015C800934207D002F58062934203D002F540525D
:1015D80093422AD16B681A68936843F480439360F6
:1015E8002268617E136823F0787343EA41531360DD
:1015F8002268A17E136823F4F81343EA01431360B9
:10160800E37E23B12268936843F400439360226821
:10161800136843F0010313602368DA699102FCD56B
:10162800DA695202FCD5002065E76FF0150062E721
:101638003C3200080038014010B54FF0E0239A69A9
:1016480019699869094B11F4803F094901D182420F
:1016580006D21A680C6822441A604FF0E022126918
:101668001B680A681344181A10BD00BFBC0200208A
:10167800C0020020094B102283F82320084B44F2B3
:1016880067221A60074B002018604FF0E0235A6168
:1016980098611A6942F007021A61704700ED00E08C
:1016A800C0020020BC02002010B5FFF7C5FF104B98
:1016B8001049D3E900420868001942F10002C3E961
:1016C80000020D4A00230B60D2E9004144F268236E
:1016D800001BB0FBF3F043431B1941F10001C2E9C1
:1016E800003100F099FDBDE81040FFF799B800BF40
:1016F80090000020BC020020880000202DE9F04165
:10170800364F00295ED0421C0AD14FF0E0221369FF
:1017180023F0010313614FF07F433B60BDE8F08184
:101728003E68012854DD40F2D938404501DC00F11B
:10173800FF384FF01003EFF3118583F31288BFF3DE
:101748006F8FFFF779FF26494FF0E0239A69D1E9B7
:101758000043001943F10003C1E90003214B0024B1
:101768001C60214B1B68C41A35D444F2682C0CFB4E
:101778000844181A04F58444673440F22643B4FB3D
:10178800FCF40CFB0400984225D9184B984228BF5A
:1017980018464FF0E023386001389C6958610020F2
:1017A8009861A242A2EB0403D1E9000238BF9B1959
:1017B8001B1842F10002C1E9003285F31188BFF31A
:1017C8006F8FABE7431C3E68ABD140F2D930AEE730
:1017D8004FF00008ADE740F22640DAE7C0020020EB
:1017E80090000020BC020020880000202882FF0012
:1017F80038B54FF01003EFF3118583F31288BFF368
:101808006F8F084B1C68084B1B68E41AFFF714FF1E
:1018180085F31188BFF36F8F44F268232044B0FB2F
:10182800F3F038BD9000002088000020174B9A681C
:1018380002F00C02042A23D09A6802F00C02082A4B
:1018480020D09A6802F00C020C2A1DD1D968DA68F7
:10185800D868DB6801F00301C3F341630329C2F3CD
:101868000312C0F3062003F101030CBF084909491C
:101878005B000132B1FBF2F25043B0FBF3F070476A
:101888000448704702487047002070470010024023
:1018980000366E010024F400254B421E9A4245D8BA
:1018A800244B1B6803F4C063B3F5007F2BD1224B94
:1018B80098422DD8214B98422CD8214B98422BD8AE
:1018C800204B98422AD8204B984229D81F4B98423F
:1018D80028D81F4B984227D81E4B984294BF002007
:1018E80001201D4A136823F00F0303431360136894
:1018F80003F00F0398421CBF136803F00F03C01ACC
:1019080018BF01207047154B98420DD8144BE4E7D7
:101918000820E6E70720E4E70620E2E70520E0E7FD
:101928000420DEE70320DCE70220DAE70120704725
:101938007FFE210A0070004000688909003B5808B2
:10194800000E270700E1F50500B4C40400879303DF
:10195800005A6202002D3101002002400024F400E8
:1019680000127A0038B503464FF01002EFF31185E4
:1019780082F31288BFF36F8F01F00EFC064A1458E9
:10198800184601F044FB85F31188BFF36F8F20469A
:10199800BDE83840FFF7CAB808000000104B70B522
:1019A80053F82040013053F82060A64200D870BD9B
:1019B800D4E9003595B153B12846984738B1002885
:1019C800B8BF4042EB68FF28A8BFFF201870EA683C
:1019D800537843F0010353700834E6E79847FBE770
:1019E8004C38000808B50A4B012203201A70FFF78B
:1019F800D5FF00F07BFC0420FFF7D0FF00F00AF9C8
:101A0800FEF750FD034A137B23F00103137308BD4F
:101A1800F90200201801002008B50348034A0021F4
:101A2800121A01F0F7FA08BD88000020FC02002015
:101A380070B5002386B00122CDE90423194E1A4D52
:101A480001930F22CDE902321849142303FB0055F4
:101A580006EBC01604464FF4C070154B00954FF4C2
:101A6800A07200FB0411304600F094F8737B114A11
:101A7800EE6023F0040373734FF4046304FB033331
:101A880013446B600C4B2C74BFF35B8F53E8001F3F
:101A9800013143E80012002AF8D1BFF35B8F06B08A
:101AA80070BD00BF98000020C8020020400B002035
:101AB8002530000800030020C402002080B5002063
:101AC800A6B0FFF76BFF2C4B83F308882B4D2C4EE9
:101AD8006B692C4F43F400736B610024F02385F885
:101AE8002230EC772C766C76AC7685F820406B6AE1
:101AF80043F4E0236B62FEF7E5FFFEF743FD4FF08A
:101B0800FF33AB62EB62FFF7BFF8FFF725F840F24F
:101B18000113ADF8243006ABB360CDE91E4421941F
:101B280001F060FA0120FFF739FF0220164DFFF798
:101B380035FF00F02DFA154B756105930123144903
:101B48000094CDE903434FF480623B46CDE901445C
:101B5800284600F01FF86A7B064622F00402284651
:101B68006A7301F079FA2046FFF762FF3A46314678
:101B78002846FEF7F7FD00BF400B002000ED00E00F
:101B8800C8020020ED19000818010020A639000835
:101B9800C00C00202DE9F04385B00732994600F1CA
:101BA800580322F00706C0E91633109B037306F1A9
:101BB80040050423002743730D440F9B8373884615
:101BC800C0E9067729468760C7730446FEF7FAFD21
:101BD80008F140030730C4E9183620F007000E9BCF
:101BE800A06602930D9B01932D1A0C9B00932A4625
:101BF8004B4641462046FEF783FD054B67659B68CB
:101C080003B1DB6EE366284605B0BDE8F08300BF8C
:101C1800C8020020F0B5224C224D87B02646AE42BD
:101C280004F12C040BD300F083F91D4C1E4F0A2637
:101C3800AC4220D307B0BDE8F04000F08DB954F8AD
:101C4800043C059354F80C3C049354F8103C03935B
:101C580054F8143C029354F8183C019354F81C3C73
:101C6800009354E9092354E90B01FFF793FF54F853
:101C78002C3C5E65D2E7626A531C09D022EAE27204
:101C880082FB062352EA0301206803D100F032F9EF
:101C98002C34CDE73946183000F048FAF8E700BF91
:101CA8005C3600085C360008C5300008C3897F2B05
:101CB80012D80A4B1B6863B1094B90F90E201B68B8
:101CC8009A4209DB437BDB0606D1064BC31A18BFD1
:101CD800012303F0010070470023FAE7F002002017
:101CE800EC02002098000020044BC01A044BC010DE
:101CF8005843044B01221A54704700BF9801002032
:101D0800ABAAAAAAFA02002070B50E4B0E4C1E7C94
:101D180006EB460304EBC3040546204601F0E8F948
:101D28000A4B002228469A55FFF7C0FF48B1084BD6
:101D380008491A68013A2046D317BDE8704000F0F8
:101D4800F5B970BDC802002098010020FA020020F1
:101D5800F0020020F11C000838B50D4D2B4653F851
:101D6800184F9C4200D004B9EC68AB6838B95A7B6C
:101D7800D20604D1A26912B9DA897F2A05D89C4211
:101D880002D02046FFF7C0FF23466B6138BD00BF75
:101D9800C802002070B590F90D20437B002A014647
:101DA80004DA03F07F03437301F044F94B7B154ACF
:101DB80063F07F0310464B7350F8183FD469834291
:101DC80008BF002323B9C1E900042160D1610CE0F8
:101DD80091F90E5093F90E60B5420ED0AE420CDD6B
:101DE8005868C1E90030016059609068431A584248
:101DF800BDE870405841FFF7AFBF9C42E3D01B6875
:101E0800E0E700BFC802002070B490F90D30427BB3
:101E1800002B29DBD30627D183692BBB134962F03A
:101E28007F0242730A4652F8184F944218BF23465D
:101E3800CC6923B9C0E900242060C8610CE090F99E
:101E48000E5093F90E60B5420AD0AE4208DD5A68CA
:101E5800C0E900321060586070BC0020FFF77CBFFA
:101E6800A342E7D01B68E4E770BC7047C8020020B3
:101E780038B54FF01003EFF3118583F31288BFF3E1
:101E88006F8F104B104A9C681068A04206D1FFF76C
:101E98003BFF85F31188BFF36F8F38BD00211B7C92
:101EA80011600A4AD35C002BF3D02046FFF7FEFEF0
:101EB8000028EED0637BDB0602D12046FFF76AFFDD
:101EC8002046E4E7C8020020E8020020FA020020C9
:101ED80049B9EFF3058030B9054B5A699B689A42B6
:101EE80001D0FEF7B1BB81F31188BFF36F8F704744
:101EF800C802002010B54FF01002EFF3118482F3EE
:101F08001288BFF36F8F427B510704D484F3118882
:101F1800BFF36F8F10BD22F004024273FFF774FF06
:101F280021460248BDE81040FFF7D2BFFB0200205F
:101F38004FF01003EFF3118183F31288BFF36F8F13
:101F4800044B9A68D37B013BD37381F31188BFF3A9
:101F58006F8F7047C802002010B54FF01003EFF3E1
:101F6800118483F31288BFF36F8F084B9A68D37B71
:101F78000133D3730020FFF7EFFE84F31188BFF31A
:101F88006F8FBDE8104001F0A9B800BFC80200205B
:101F9800024B03F11802C3E906227047C802002069
:101FA800014B9868704700BFC80200202DE9F04136
:101FB80004464FF01003EFF3118683F31288BFF342
:101FC8006F8F037BD9070BD586F31188BFF36F8F0B
:101FD800404080F311884FF0040002DFBDE8F08133
:101FE800437B1A0704D586F31188BFF36F8FF5E793
:101FF80023F0200242F00801D20920D14173A368DE
:1020080013B1204601F01EF804F1180001F070F831
:1020180004F158074FF00008A56DBD4200D0B5B9CE
:102028000120FFF799FE104B9B68A342DBD1EFF329
:102038000583002BD7D13046FEF706FBD3E703F024
:102048005F0343F00803437300F0F4FFD7E7284623
:1020580000F0F8FF05F1180001F04AF8C5F878809B
:102068002846FFF7D1FED7E7C802002008B5064882
:10207800064A0749121A00F0CFFFBDE80840054A92
:102088000549064800F0C8BF000000208400002071
:10209800003A000800000000003A00080000002094
:1020A800034B1B680BB9FFF7A3BB0020704700BFA9
:1020B800F402002010B50E4B1C689C4204D1FFF7B7
:1020C800EFFF6FF0004010BDFFF7EAFF002CF8D0DB
:1020D800D4E904321B1A62EBE072B3F1004F72F1DB
:1020E8000001EEDA002AACBF18460020EBE700BF7B
:1020F8005400002030B570B10B4B5B6898420AD091
:10210800036843B1D3E90421D0E90445121941EB2E
:102118000501C3E90421D0E9003213605A600023A5
:10212800C0E9003330BD00BF54000020B3F1FF3FC9
:1021380008BFB2F1FF3FF8B504461D4616465CD00D
:1021480081604FF01003EFF3118783F31288BFF318
:102158006F8F013275F1FF3324DA2D49D1E9002060
:102168006FF001039B1A4FF0FF3262EB00009E1BD9
:1021780060EB0500012E70F1000301DA0126002052
:10218800C4E90460234ED6F800C07568B44508BF9A
:102198004FF0000CBCF1000F0DD1C4E900652C60B4
:1021A80074601CE0FFF77CFF013645F10005361826
:1021B80045EBE070E4E7DCE90420D4E9043193421C
:1021C80071EB000E1ADAD21ADCF8043060EB010069
:1021D800CCE90420C4E900C31C60CCF8044033688F
:1021E800B34206D09C4204D1FFF764FF0021FFF7F9
:1021F80085FA87F31188BFF36F8FF8BD9B1A61EBDF
:102208000001AC45C4E90431C7D0DCF800C0C1E71F
:10221800B0010020540000202DE9F84F4FF01003C2
:10222800EFF3118C83F31288BFF36F8FDFF8B0A040
:10223800DFF8B0902C4FC9F80000DAF8000000244D
:10224800504508BF00200025D7E90021D9F8003003
:10225800E04680B3D0E9046C4FEAE37EB3427EEBFC
:102268000C0B05DAF61A6CEB0E04C0E9046422E0E4
:10227800B21841EBE671C0E90445C7E90021FFF750
:1022880039FF88F31188BFF36F8F836898474FF041
:102298001003EFF3118883F31288BFF36F8FD9F817
:1022A8000030DAF800009B1B5045C446C9F80030DE
:1022B800CAD1D7E900219A1841EBE3730024C7E992
:1022C8000023C9F80040FFF7F5FE2146FFF716FA8C
:1022D80088F31188BFF36F8FBDE8F84FFFF7C8BDCB
:1022E80054000020F4020020B0010020014800F052
:1022F80060BA00BFAE3900080FB407B5064B04AA90
:10230800186852F8041B019200F008F803B05DF851
:1023180004EB04B0704700BF903600082DE9F04F79
:102328008BB04368019383789F078246144640F137
:102338000981002591F80080B8F1000F00F00481B0
:10234800B8F1250F0BD04B1C02930135019B514668
:10235800404698470028C0F2F5800299EAE791F8CC
:1023680001808B1CB8F1250F0293EED0002399460B
:102378001F461F2F39D8A8F12002102A0AD8DFE8F3
:1023880002F02B0909310909092109090929092E2E
:1023980009091F00A8F13002092A32D9B8F12A0F19
:1023A80035D1780654F8042B00F18180002AA7BFA4
:1023B80047F020079146C2F1000947F0280701E0DD
:1023C80047F00107029A12F8018B0292B8F1000F48
:1023D800CFD132E047F0020747F00407F2E747F0B1
:1023E8000807EFE747F01007ECE77F2F18D8A8F1A8
:1023F8003002092AD2D87E0603D50A2101FB03231D
:10240800E0E70A2101FB092947F02007DAE7B8F1DC
:102418002E0F05D1790600F1978047F04007D1E7E4
:10242800B8F16C0F32D02AD8B8F1680F35D0B8F1AE
:102438006A0F39D0B8F14C0F36D0002B48F0200283
:10244800B8BF27F04007A2F16501BCBFBFB20023A7
:10245800022901D9612A2CD1073424F007049A4EA5
:1024680008344FF00708380763D506EB080B3746E2
:102478005F4560D1AE1B3744A9EB080954E1B8F1B8
:10248800740F9FD0B8F17A0F9CD0D6E73A0648BFB0
:1024980047F4007747F0800794E7FE0548BF47F404
:1024A800007747F480778DE747F420778AE713466B
:1024B80088E7A8F16301122900F2CF80DFE811F064
:1024C80013004800CD00CD00CD00CD004800CD0060
:1024D800CD00CD00CD00CD00DF00C700CD00CD0080
:1024E8001B00CD00960054F8043B8DF81C304FF0CB
:1024F800010807AEB7E754F8046B744A002E08BF0A
:10250800164617F0400F14BF19464FF0FF313046FA
:1025180000F004FE8046A6E7019B5146202098471C
:1025280000280FDB013FB845F6D34D44ED1BB946F3
:102538009BE74F46F7E717F8010B019B5146984771
:10254800002895DA4FF0FF3528460BB0BDE8F08F2C
:10255800390637D5BA0545BF073424F0070454F8BF
:10256800040B54F8080B27F010060028B6B232DA2C
:10257800404246F48066039307AF0A22394600F0CA
:10258800D9FD7206039BA0EB07074BD526F0010186
:10259800BB4289B240F38A80B8F1000F00F0828014
:1025A80016F01002039240F083809B460E4640F2DC
:1025B800064116EA010203921EBF00220BF1010B2D
:1025C800039238E0FE0554F8040BCCD5B9054CBF8E
:1025D80040B200B2C7E7CED17A06CCD5002BCAD11B
:1025E80027F01107BEB21F469B46E0E727F0100709
:1025F800BFB20A223E0646D5B80545BF073424F0C7
:10260800070454F8040B54F8080B002844D127F0A9
:1026180016067906B6B242D5002B40D127F0170727
:10262800BEB21F4616F0100203924AD0B8F1000F4E
:1026380045D107F1010B31075CD4F20705D5D9451F
:1026480075DDA9EB0B02D319CB465A464CE047F08F
:10265800100710224FF07808CCE7782A06D1B8F195
:10266800580F14BF10224FF40472C3E7019B514660
:10267800252098470028FFF665AF023566E6082250
:102688004FF00008B6E7F90554F8040BBDD5BE05B0
:102698004CBFC0B280B2B8E727F00607BEB20393BA
:1026A80007AF6BE726F01106B6B29DE70E46B9E70D
:1026B80038460E461F4607F1020B0746BBE7384669
:1026C800F9E7BB4673E700BFF7390008F03900089F
:1026D800CDE904325146019B202098470028FFF697
:1026E80031AF059A049B01329145F1DCA5EB0B0152
:1026F8008D189346039A32B303935146019B3020B9
:1027080098470028FFF61EAF039BB8F1000F10D1C1
:1027180001355E19711B8F4227DB3E460DF11C08FF
:1027280066BB2F44A9EB0B093D46B94438E03B464C
:102738008BE70393023551464046019B9847002892
:10274800039BE6DAFEE640F206410E42E1D016F0BF
:10275800020F14BF2B20202016F4806F039305F17D
:102768000105514618BF2D20E7E7019B514630204F
:102778009847002805F10105CCDAE3E6013E019B04
:1027880018F80600514698470028C9DADAE6019B8E
:10279800514620209847002805F10105FFF6D2AEE2
:1027A800A9EB0503002BF2DCD7E500BF704700203A
:1027B80070470FB407B504A951F8040B0191FDF750
:1027C80089FE03B05DF804EB04B0704700EBC1006C
:1027D800408840087047F8B50346FFF7F7FFB0FA9E
:1027E80080F0C0F11F0003EB800CCA00DCF8106019
:1027F800171D0C4606328DB256B9012101FA00F0B8
:10280800D9680143D960CCF81040DD539D52F8BD1A
:10281800F1000431585AD85303EBC0009E52C580CA
:102828005D52F4E7043A2DE9F041CC1D114424F03F
:10283800070421F007010E1BF708B7FA87F2C2F167
:102848002405AD004FF000080735C2F12002ED085D
:1028580004604146A760C4F80C80920004F110009F
:1028680000F092FC6B0043F00103638004EBC502A7
:102878007B1B5900A4F800805180A21924F8355018
:10288800A2F80280A35304EBC70329465A8842F0F2
:1028980001025A802046BDE8F041FFF79CBF70470F
:1028A80000207047FFF75EB801460068FFF75AB886
:1028B80000210120FFF7F6BF08B5FDF79DFEBDE832
:1028C8000840FDF7ADBF08B5FEF70EFA002008BDB9
:1028D80008B5062201210020FEF752FA002211460F
:1028E8000620FDF771FE012108460722FEF748FA87
:1028F800002211460720FDF767FE08220121022069
:10290800FEF73EFA002211460820FDF75DFE092277
:1029180001210320FEF734FA002211460920FDF7B1
:1029280053FE0A2201210420FEF72AFA002211464A
:102938000A20FDF749FE052108461722FEF720FA6E
:10294800002211461720FDF73FFE282206210A2003
:10295800FEF716FA002211462820FDF735FE002062
:1029680008BD0B68A3F14802182A9FBF03F18043F2
:1029780003F5043349681A689DBF0A4300201A60AA
:102988006FF0850070470B68A3F14802182A9FBFB3
:1029980003F1804303F5043349681A689DBF8A43ED
:1029A80000201A606FF08500704710B50A680B2A7E
:1029B80026D840F6AC73D340DB0721D54A68FF2AF6
:1029C8001CD0D3B203F1804303F50433C2F342347D
:1029D8001868C2F3042204FA02F220EA02021A601A
:1029E8004968CBB203F1804303F50433C1F30242D3
:1029F8001868C1F304218A4002431A60002010BD00
:102A08006FF08500FBE70B68A3F14802182A0AD883
:102A180003F1804303F504331A684B68934314BFEA
:102A28000120022070470B2B9FBF40F6AC70D840A6
:102A380000F00100013088BF0120704743685B68DF
:102A48001B690B600020704743685B685869424007
:102A58000A4042405A610020704743685B68002082
:102A68009961704743685B680020996270474368C2
:102A78005A6853694B4053610020704710B5036989
:102A88009868F8B1884219D1DC6808689860A14252
:102A980000D1D860002008602AB19A680A60DA6814
:102AA800996002B9D960002010E0814206D1086817
:102AB8002060D8688142EDD1DC60EBE7044600680D
:102AC8000028F2D1002AE8D16FF0150010BDF0B54A
:102AD80044680120676888401E46C2F3801327EACD
:102AE80000078B403B43636090FAA0F7B7FA87F77B
:102AF800D4F808C04FF0030E7F000EFA07F72CEA4F
:102B0800070C90FAA0F7B7FA87F7C2F3C1137F0052
:102B1800BB4043EA0C03A36090FAA0F3B3FA83F333
:102B2800E7685B000EFA03F327EA030790FAA0F3BD
:102B3800B3FA83F302F030055B00C2F341229A40F6
:102B48003A43202DE26016D107292BDC90FAA0F336
:102B5800226A2BB3B3FA83F39B000F2101FA03F324
:102B680022EA030290FAA0F3B3FA83F39B0006FA71
:102B780003F31343236290FAA0F3B3FA83F32268B2
:102B880090FAA0F05B000321B0FA80F02D0901FA59
:102B980003F3400022EA030385401D432560F0BD8E
:102BA8002B46D9E7030A616A93FAA3F282B1B2FA13
:102BB80082F292000F2793FAA3F3B3FA83F307FA8A
:102BC80002F29B0021EA02029E4016436662D2E7A7
:102BD8002A46EEE713469A0310B518D59C070FD579
:102BE8005A072DD55022DC060CD542F4007213F496
:102BF800002F446818D0646801238B40A3610DE05E
:102C08001022F0E79C06F2D542F48062EFE7DC037D
:102C180011D5DA0611D4C3F340139A024068002391
:102C2800FFF755FF002010BD5B03F7D5646801234B
:102C38008B40A362F2E73022F0E74FF40072EDE731
:102C48006FF08500EFE770B50B46896821B1012563
:102C58005E680C68854001B970BD8A682A4002D058
:102C68004B68304698471CB1236821461C46F2E75A
:102C78002346FAE7F8B51F46044640680E4615464F
:102C8800FFF725FF112F08D1012303FA06F6636821
:102C98005B682A054CBF9E619E620020F8BD30B576
:102CA800036813600579046804EBC504A34202D3E2
:102CB8006FF0010030BD5C798C4201D00833F0E739
:102CC8000020F7E74368C1F34B101B6801F01F01B0
:102CD800C05801238B40034214BF01230023137003
:102CE8000020704710B54368C1F34B101A6801F013
:102CF8001F01845801238B4023438350002010BDBB
:102D080010B54368C1F34B14186801F01F0123582C
:102D180001228A4023EA02032350002010BD38B55F
:102D280004460D46FFF7DEFF29462046FFF7E8FF79
:102D3800002038BDB0F5805F07D0B0F1805F09D1C1
:102D4800002914BF012002207047002914BF032066
:102D580004207047002914BF0220032070474268EE
:102D68001368D869D969C907D969C0F3C00048BFD1
:102D780040F002008907D96948BF40F004004907BC
:102D8800D96948BF40F02000C90542BF4FF480719F
:102D980040F008001962C10742BF13680821196290
:102DA800830742BF136801211962410742BF1368B4
:102DB80002211962830642BF136804221A6270470F
:102DC80010B540680268D3691B06FCD54FF01002A5
:102DD800EFF3118382F31288BFF36F8F0268D4690F
:102DE800240604D483F31188BFF36F8FEAE7916256
:102DF80083F31188BFF36F8F10BD43681A68D069D9
:102E0800000744BF082010621B68DA69920643BFB6
:102E18005B6A0B7000204FF0FF30704710B50269F5
:102E2800526812680A6042681268126802F4C06246
:102E3800B2F5806F04460B4633D0A2F5C06042421B
:102E480042411A7162681268526802F44052B2F53F
:102E5800805F28D0B2F5405F27D0002A0CBF01223E
:102E680003225A71626812681068116800F0102015
:102E780001F4C061FFF75EFF98716268126892689A
:102E880002F44072A2F540714A424A41DA7161681F
:102E98000968896811F4804F18BF0322DA7100208D
:102EA80010BD0222CDE70022DBE70222D9E72DE997
:102EB800F0410A790369D0F804805E68012A044663
:102EC8000D4611D0901E47424741BF0269794046DE
:102ED800FEF7F0F9AB79022B09D0042B31D0131E81
:102EE80018BF01231B0306E04FF4C067EEE7B2FAF0
:102EF80082F35B091B07EA79D8F80010012A14BF8E
:102F08004FF0000C4FF4407CAE421DD10A6822F00D
:102F1800805222F4B0523A431A430A604B6823F4B1
:102F2800405303434B6063681A68936823F4407303
:102F380043EA0C03936031682046BDE8F041FEF790
:102F4800EDB94FF48053D6E7D1F800E00EF4C06E27
:102F580077451FBFD1F800E02EF4C06E4EEA070790
:102F68000F6061680F68796801F4405188421FBF9B
:102F7800796821F440510143796061680868016803
:102F880001F010218B421FBF016821F010210B4373
:102F98000360636819688B6803F440739C451FBF1E
:102FA8008B6823F4407343EA0C038B6063681B68E7
:102FB8009968490405D5032A09D09A6822F4804201
:102FC80004E0032A03D19A6842F480429A6029688F
:102FD8003368994204D02046FEF7A0F92B68336085
:102FE800BDE8F081704740B1C368587810F001001F
:102FF8001EBF1878B0FA80F0400970474FF01002F1
:10300800EFF3118382F31288BFF36F8FFEE708B5E1
:10301800FFF7F4FF00F0B8B800F0A8B808B54FF013
:103028001002EFF3118382F31288BFF36F8FFDF75D
:10303800AFFAF4E7D0E9003213605A600023C0E920
:103048000033704708B5FFF7F5FF437B23F0020311
:1030580043730023836008BD10B54FF01003EFF3EE
:10306800118483F31288BFF36F8FFEF7CDFE84F3CC
:103078001188BFF36F8F10BD38B504464FF01003A9
:10308800EFF3118583F31288BFF36F8F437B13F03F
:10309800280F0BD183680BB1FFF7D4FF637B51B9BD
:1030A80003F0FB0363732046FEF7AEFE85F3118839
:1030B800BFF36F8F38BD03F0EB03F3E70121183836
:1030C800FFF7DABF034620B9EFF305820AB9FDF727
:1030D800BBBA83F31188BFF36F8F70474FF01003AB
:1030E800EFF3118083F31288BFF36F8FFFF7EABF06
:1030F80010B54FF01002EFF3118482F31288BFF37A
:103108006F8F03683BB1FEF7F5FF002084F3118849
:10311800BFF36F8F10BD6FF01500F7E710B50246CB
:1031280001448A42134603D01C780132002CF8D19E
:10313800181A10BD930570B548BF22F400720446F2
:1031480008464CBF07212721B4FBF2F502FB1543C3
:10315800DBB2092B88BF5B18264688BFDBB2303349
:10316800B24200F8013B2C46EED970BD0A449142A8
:1031780000F1FF3300D1704710B511F8014B03F887
:10318800014F9142F9D110BD02440346934200D148
:10319800704703F8011BF9E7014800687047000011
:0431A800B80100204A
:0831AC0060D0FF7F010000006C
:1031B4004105000800000000150F00083C3200081B
:1031C400A928000800000000000000005032000898
:1031D400F9100008C8320008F9100008F03200089D
:1031E400D928000864320008F9100008DC3200080D
:1031F400F9100008B4320008F9100008A0320008E1
:10320400F91000088C320008F91000087832000820
:10321400E914000804330008E9140008183300080E
:10322400A9100008000000007D160008000000003E
:08323400190D00080000000064
:10323C00EB38000800000000140000206E00002095
:10324C00000000005A390008903700089437000835
:10325C007E00002000000000CD38000800000000B7
:10326C00000000006C000020CC010020F8380008A1
:10327C00B436000840370008700000204C020020D3
:10328C0006390008C83600084037000872000020D4
:10329C005C02002014390008DC36000840370008B6
:1032AC00740000206C02002022390008F03600085F
:1032BC0040370008760000207C02002030390008DE
:1032CC000437000840370008780000208C020020EA
:1032DC003E39000818370008403700087A000020F3
:1032EC009C0200204C3900082C370008403700089D
:1032FC007C000020AC0200206B390008A4370008C9
:10330C003438000880000020300000207B39000891
:10331C00EC37000834380008820000204000002000
:10332C0000000000B928000800000000B9280008BF
:10333C0000000000B928000800000000B9280008AF
:10334C0000000000B928000800000000B92800089F
:10335C00CB3800083D0D0008C93800083D0D0008A9
:10336C00C73800083D0D0008C53800083D0D0008A1
:10337C00C33800083D0D000800000000B928000803
:10338C0000000000B928000800000000B92800085F
:10339C0000000000B928000800000000B92800084F
:1033AC0000000000B928000800000000B92800083F
:1033BC0000000000B928000800000000B92800082F
:1033CC0000000000B928000800000000B92800081F
:1033DC0000000000B9280008C13800083D0D0008A5
:1033EC0000000000B928000800000000B9280008FF
:1033FC0000000000B928000800000000B9280008EF
:10340C0000000000B928000800000000B9280008DE
:10341C0000000000B928000800000000B9280008CE
:10342C0000000000B928000800000000B9280008BE
:10343C0000000000B928000800000000B9280008AE
:10344C0000000000B928000800000000B92800089E
:10345C0000000000B928000800000000B92800088E
:10346C00BF3800083D0D000800000000B928000816
:10347C0000000000B928000800000000B92800086E
:10348C0000000000B928000800000000B92800085E
:10349C0000000000B928000800000000B92800084E
:1034AC0000000000B928000800000000B92800083E
:1034BC0000000000B928000800000000B92800082E
:1034CC0000000000B928000800000000B92800081E
:1034DC0000000000B928000800000000B92800080E
:1034EC0000000000B928000800000000B9280008FE
:1034FC0000000000B928000800000000B9280008EE
:10350C0000000000B928000800000000B9280008DD
:10351C0000000000B928000800000000B9280008CD
:10352C0000000000B928000800000000B9280008BD
:10353C0000000000B928000800000000B9280008AD
:10354C0000000000B928000800000000B92800089D
:10355C0000000000B928000800000000B92800088D
:10356C0000000000B928000800000000B92800087D
:10357C0000000000B928000800000000B92800086D
:10358C0000000000B928000800000000B92800085D
:10359C0000000000B928000800000000B92800084D
:1035AC0000000000B928000800000000B92800083D
:1035BC0000000000B928000800000000B92800082D
:1035CC0000000000B928000800000000B92800081D
:1035DC0000000000B928000800000000B92800080D
:1035EC0000000000B928000800000000B9280008FD
:1035FC0000000000B928000800000000B9280008ED
:10360C0000000000B928000800000000B9280008DC
:10361C0000000000B928000800000000B9280008CC
:10362C0000000000B928000800000000B9280008BC
:10363C0000000000B928000800000000B9280008AC
:10364C0000000000B928000800000000B92800089C
:10365C009B38000800000000AC3800080000000097
:10366C00AB390008000000008B3900080000000096
:10367C0060000000010000000000002000000000BD
:10368C0000000B0604000020020000009C3600081D
:10369C0000000008B03800082400020700000020D9
:1036AC00B838000820000B11FFFF0000001800487C
:1036BC00060000004C00000040000000FFFF00006E
:1036CC0000140048050000004C0000002000000021
:1036DC00FFFF000000100048040000004C00000038
:1036EC0010000000FFFF0000000C00480300000069
:1036FC004C00000008000000FFFF0000000800481C
:10370C00020000004C00000004000000FFFF00005D
:10371C0000040048010000004C0000000200000002
:10372C00FFFF000000000048000000004C000000FB
:10373C0001000000DD2B0008452A0008512A000872
:10374C00632A00086D2A0008772A0008291100084E
:10375C00852A000800000000F0320008DC32000866
:10376C00C8320008B4320008A03200088C320008BD
:10377C00783200080000000000000000000000008B
:10378C000000000000100240CD2C0008ED2C0008B9
:10379C00092D0008272D0008008000405032000839
:1037AC0080070000C4370008010000000000000082
:1037BC0000000000CC3700085C0000000100000095
:1037CC00D437000801000000DC37000802000000BC
:1037DC004C000000000200006C0000000000000023
:1037EC0000380140503200080E0800000C38000868
:1037FC000100000000000000000000001438000868
:10380C0060000000004000001C38000801000000AF
:10381C0024380008020000008704000000020000A9
:10382C00A704000000000000032E0008C92D0008AA
:10383C00672D0008E1130008252E0008F5FFFFFF97
:10384C00B4310008B43100082C32000834320008BE
:10385C003C3200083C320008010002000400060063
:10386C0008000A000C00100020004000800000013D
:10387C006E75636C656F5F673437347265004865CD
:10388C006C6C6F20576F726C64212025730A006377
:10389C00627072696E74665F7061636B61676500FC
:1038AC006D707500464C4153485F30005352414D8A
:1038BC005F30000A06050504010301020101010045
:1038CC0001696E746572727570742D636F6E7472AB
:1038DC006F6C6C6572403430303130343030007283
:1038EC006363403430303231303030006770696F90
:1038FC00403438303031383030006770696F4034C4
:10390C0038303031343030006770696F40343830C3
:10391C003031303030006770696F403438303030BF
:10392C00633030006770696F403438303030383075
:10393C0030006770696F40343830303034303000CC
:10394C006770696F40343830303030303000726519
:10395C007365742D636F6E74726F6C6C657200732B
:10396C00657269616C4034303030383030300073FF
:10397C00657269616C4034303031333830300075E9
:10398C006172745F73746D333200000000000000CC
:10399C00000001020304060708096D61696E006FDF
:1039AC0073002A2A2A20426F6F74696E67205A6549
:1039BC0070687972204F53206275696C64207A6547
:1039CC00706879722D76332E342E302D3333313698
:1039DC002D67383361663733343966333462202AC5
:1039EC002A2A0A00286E756C6C29002A666C6F6195
:0439FC00742A000029
:103A0000B727000800000000CF28000800000000D1
:103A1000000000006B2900088F290008000000004A
:103A2000810E00080F2A000800000000B3290008DA
:103A3000000000003800002000C201000001030067
:103A4000000000004800002000C201000001030047
:103A50000024F4005400002054000020FFFFFFFF6A
:0C3A6000FFFFFFFFFFFFFFFFFFFFFFFF66
:103A6C00000000000000000000000000000000004A
:083A7C00000000000000000042
:043A840015E015E054
:0400000508000B09DB
:00000001FF
