:1000000098100020310D0000853F0000050D000014
:10001000050D0000050D0000050D0000050D000098
:100020000000000000000000000000005D0900006A
:10003000050D000000000000F5080000050D00009F
:10004000E9090000E9090000E9090000E9090000E8
:10005000E9090000E9090000E9090000E9090000D8
:10006000E9090000E9090000E9090000E9090000C8
:10007000E9090000E9090000E9090000E9090000B8
:10008000E9090000E9090000E9090000E9090000A8
:10009000E9090000E9090000E9090000E909000098
:1000A000E9090000E9090000E9090000E909000088
:1000B000E9090000E9090000E9090000E909000078
:1000C000E9090000E9090000E9090000E909000068
:1000D000E9090000E9090000E9090000E909000058
:1000E000E9090000E9090000E9090000E909000048
:1000F000E9090000E9090000E9090000E909000038
:10010000E9090000E9090000E9090000E909000027
:10011000E9090000E9090000E9090000E909000017
:10012000E9090000E9090000E9090000E909000007
:10013000E9090000E9090000E9090000E9090000F7
:10014000E9090000E9090000E9090000E9090000E7
:04015000E9090000B9
:1001540053B94AB9002908BF00281CBF4FF0FF312A
:100164004FF0FF3000F00CB8ADF1080C6DE904CE8F
:1001740000F008F8DDF804E0DDE9022304B070477C
:10018400704700BF2DE9F04786468C460846089E16
:10019400154674461946002B40F0C1808542B2FAD8
:1001A40082F245D94AB1C2F1200300FA02FC95401B
:1001B40094402EFA03F343EA0C0C4FEA154EA8B20E
:1001C400230CBCFBFEF80EFB18CC08FB00F943EA39
:1001D4000C43994528D9EB1808F1FF3704D2994507
:1001E40002D9A8F102072B44A3EB0903A4B2B3FB81
:1001F400FEFC0EFB1C330CFB00F044EA0344A0425B
:1002040014D92C190CF1FF3304D2A04202D9ACF159
:1002140002032C44241A43EA07401EB1D4400023AD
:1002240034607360BDE8F0874746DDE76346F1E775
:1002340092BB431B01214FEA154EAFB2200CB3FB16
:10024400FEFC0EFB1C330CFB07F840EA0343984505
:1002540061D9EB180CF1FF3004D2984502D9ACF106
:1002640002002B44A3EB0803A4B2B3FBFEFC0EFB79
:100274001C330CFB07F744EA0344A7424DD92C195D
:100284000CF1FF3304D2A74202D9ACF102032C448F
:10029400E41B43EA0040C0E7C2F1200395409440C8
:1002A40020FA03F12EFA03F34FEA154E9040AFB251
:1002B4000343B1FBFEFC0EFB1C10190C0CFB07F8EE
:1002C40041EA0041884522D969180CF1FF3004D273
:1002D400884502D9ACF102002944A1EB08019BB284
:1002E400B1FBFEFC0EFB1C110CFB07F743EA0143B8
:1002F4009F420ED9EB180CF1FF3104D29F4202D970
:10030400ACF102012B44DB1B41EA004193E7604658
:10031400E3E76146F7E76046A4E76346B8E783424C
:1003240006D916B9002108467CE7C6E900E0F9E7DA
:10033400B3FA83F78FB9834201D3724508D8BEEB71
:10034400020460EB030301209C461EB9002169E707
:100354003846FAE7C6E9004CF8E7C7F1200CBB4081
:100364000EFA07F522FA0CF42EFA0CF1BA401C43EB
:1003740020FA0CF3B8404FEA144901431FFA84FEF3
:10038400B3FBF9F809FB18300B0C08FB0EFA43EA2F
:1003940000439A4540D9E31808F1FF3004D29A4546
:1003A40002D9A8F102002344A3EB0A0389B2B3FBE8
:1003B400F9F809FB183308FB0EFE41EA03418E45A8
:1003C4002CD9611808F1FF3304D28E4502D9A8F163
:1003D4000203214443EA0040A1EB0E01A0FB029872
:1003E4004145CE46434602D306D14D4504D2013899
:1003F400B9EB020E68EB0403002EA7D0B5EB0E0296
:1004040061EB030101FA0CFC22FA07F3F9404CEA10
:100414000303C6E9003199E74046C5E74346D9E7F7
:1004240008B50349034803F07FF9002008BD00BF65
:10043400904C0000A94C0000014B1B68184700BFFA
:1004440000000020014B1860704700BF000000202E
:1004540030B585B004460D4610220021684604F0EC
:10046400E7F902238DF80230044B2A4621466846F8
:10047400019303F06BF905B030BD00BF3D040000EB
:1004840080B505460E461746984602F087FF034698
:1004940004F0D6F90446DFF81890424649F80030D3
:1004A40039463046A84754F8090000F057FC00BF0D
:1004B400080000002DE9F047058B04462807904604
:1004C40011D4022905F0070540F0CD80204603F041
:1004D40073FC78B10138218B042811D8DFE800F0CF
:1004E400C3106D85950001290CBF45F0100545F03A
:1004F4002005258388F31188BFF36F8FBDE8F0874B
:1005040001F0070AAA4500F0A6800027B9463E4636
:10051400A368002B00F0BD8041F00801218388F31B
:100524001188BFF36F8FA168002900F0BB800D68AC
:10053400002900F0B780334652462046D1F80480A3
:10054400C047002D76D02B6829461D46F0E701F000
:1005540007035A1F012A1BD8002221F00701062B8A
:10056400276889B2C4E9002209D13B4603E0628BC3
:10057400013262831B68002BF9D141F0020120464D
:10058400218303F019FC00287BD041F0200177E09F
:10059400042B0AD121F0070189B22046218303F0FC
:1005A4000BFC10B141F020012183218B01F0070ADB
:1005B400AA4550D00027B946AAE7236921F00701CC
:1005C40041F00601062DD3F8009021832DD1B9F115
:1005D400000F40D041F00801218388F31188BFF354
:1005E4006F8F20463949C84729E021F00701236964
:1005F40041F0040189B2042DD3F804902183E6D09C
:1006040000274FF0040A3E4682E721F007012369E0
:1006140041F0050189B2052DD3F808902183D6D085
:1006240000274FF0050A3E4672E700274FF0060AFE
:100634003E466DE72B4687E7B9F1000FD1D14FF065
:100644002003EFF3118883F31288BFF36F8F238B9A
:1006540023F008032383258BEA062ED525F0100307
:10066400238305F007056669218B002EBFF66FAF63
:1006740000232768C4E9003321F0070141F0010198
:100684002183218B4FF0000901F0070AAA457FF46A
:100694003FAF002F9BD041F00801218388F31188DC
:1006A400BFF36F8F002FC7D03D683946334652469B
:1006B400204603F0ADFB2F46F4E7AB067FF51AAFF7
:1006C40025F02003238305F00705FFE6413E0000E3
:1006D400054B03EB8000D0F8003223F0E04343F0F5
:1006E4004053C0F80032704700258450012208B5F9
:1006F4000A4B0B49C3F8002502230020C1F8D03669
:10070400FFF7E6FF1046FFF7E3FFC1F80427C1F83F
:100714000429C1F8002B002008BD00BF00100050C0
:1007240000400050052370B5144D154E2C7801344B
:10073400B4FBF3F303EB8303E41A03F0CCFD114A97
:10074400137823B156F82430C01A072814D94FF06F
:100754005023D3F8141141B10021C3F81411D3F874
:1007640014312C700CB9012313702C7803F0B3FDF1
:1007740046F82400012070BD0020FCE7510300204E
:10078400080200205003002048B1054B054A1B68AD
:10079400B3FBF2F35843044B43F00103184770478B
:1007A4003000002040420F00604B000001F00CBC00
:1007B400014910220A60704710ED00E072B6404013
:1007C40080F31188BFF36F8F01B5FFF7ABFF0028EB
:1007D40002D0BFF34F8F30BFBDE8014062B6BFF314
:1007E4006F8F704772B6494081F3118801B5FFF7E6
:1007F40099FF002802D0BFF34F8F20BFBDE801400E
:1008040080F3118862B6704740B2002807DB0123E9
:100814004109034A00F01F00834042F82130704729
:1008240000E100E0054B420953F82220012300F0C7
:100834001F0003FA00F01040704700BF00E100E021
:1008440040B2002801F10101ACBF00F16040064B49
:100854004FEA4111C9B2ABBF00F5614000F00F008F
:1008640080F800131954704714ED00E030BFFFF70F
:10087400FDBF00BF0F4A08B50F4B22F07F029A60FC
:10088400BFF34F8FBFF36F8FD3F8882022F4700229
:10089400C3F88820EFF3148323F0040383F314884C
:1008A400BFF36F8F02F046F902F0DEFD00F032FA7A
:1008B40002F08AF90000000000ED00E0094A0A494C
:1008C400936809685867996708494B6843F08053EF
:1008D4004B60002383F31188BFF36F8F9368986F85
:1008E400704700BF20030020744C000000ED00E0BE
:1008F40016498A684FF030001044EFF3098C80E801
:10090400F01F202080F31288BFF36F8F104F4FF039
:1009140000664A698A603E604FF0700414192068CA
:100924000C4C2060506F0023536780F3118802F150
:10093400300090E8F01F8CF3098802F1000004B540
:1009440003F025FBBDE804407047000020030020AD
:1009540004ED00E01C0200201EF0040F0CBFEFF3B6
:100964000880EFF30980816911F8021C0229FFD085
:1009740001B503F0FDFA01BD42F8203C009B0B4990
:1009840042F81C3C019B21F0010142F8183C029BF7
:1009940042F8081C42F8143C4FF0807342F8043CBF
:1009A4000023203A02654367704700BF85040000B6
:1009B4000A4B046F98600A4B1C60036E83F30B8828
:1009C400104681F30988002163B681F31188BFF3CF
:1009D4006F8F00220023FFF753FD00BF2003002088
:1009E4001C02002001B5EFF30580A0F110004FEACE
:1009F400C0000449014409C99847BDE801400249BF
:100A040008470000E84800006D0A0000114B124A34
:100A14002DE9F041D518013DB5FBF3F5DFF83C8035
:100A24005D430F4B074608EB0304013CB4FBF3F4AE
:100A340003FB04540E1B30460A4903F0ECFE701904
:100A440042460021083E03F0F3FE3E6704F108002D
:100A5400BDE8F08101000000000000000400000077
:100A640004000000584B0000044B99685869884200
:100A740003D003494FF080520A60704720030020DE
:100A840004ED00E0154B9A6A12F0007F9A6A14BFD5
:100A94001E201D2012F0807F9A6A18BF1F2012F4B6
:100AA400801F9A6A18BF022012F4002F9A6A18BF96
:100AB400212012F4802F9A6A18BF222012F4003FDA
:100AC4009A6A18BF232012F4803F9A6A18BF242020
:100AD4006FEA02426FEA12429A62704700ED00E048
:100AE40010B5194B0246986A9C6A10F4805F14BFD3
:100AF4001720162014F4006F9C6A18BF1820A40550
:100B040009D5986B986A000404D51AB19A6A22F43C
:100B140000429A6219200C4B9A6A12F4806F9A6A06
:100B240018BF1A20D2050CD49B6A13F4005F18BFB7
:100B34001C20054A936A43F47F43936200230B709D
:100B440010BD1B20F5E700BF00ED00E010B51C4B05
:100B54000246986A9C6A10F0100F14BF11201020EE
:100B640014F0080F9C6A18BF1220A40709D5586B0B
:100B7400986A000604D51AB19A6A22F080029A6231
:100B840013200F4B9A6A12F0010F9A6A18BF1420AF
:100B940012F0200F9A6A18BF1520D40658BF9B6A1A
:100BA400074B9A6A920642BF5A6A22F400525A626A
:100BB4009A6A42F0FF029A6200230B7010BD00BFD4
:100BC40000ED00E0F0B5474B04465B6800258BB0B0
:100BD400C3F3080385F31188BFF36F8F02F07F40DE
:100BE400B0F17F4F11D102F00C0008280DD010078E
:100BF4004CBF0C4601250022033B8DF80720032B34
:100C040005D8DFE803F02462665F2C46F3E700238F
:100C14009DF80720CAB902AE04F1200732462068C5
:100C24006168083403C2BC421646F7D1099A002D04
:100C340053D0C2F3080121B96FEA52226FEA42226B
:100C44000992184602A903F091F90BB0F0BD254BA7
:100C5400DA6A9107DBD4DA6A002AD8DBDA6A52004E
:100C6400D5D55A69A16942F480725A61BFF34F8F96
:100C7400BFF36F8F5A6931F8021C22F480725A61F3
:100C8400BFF34F8FBFF36F8F4DF60272914209D0BD
:100C94009A6AD2B242B101200DF10701FFF756FF63
:100CA4000346B5E72368B3E79A6A12F47F4F05D089
:100CB40001200DF10701FFF713FFF1E79B6AB3F57C
:100CC400803FA4D3FFF7DEFEEAE700200DF1070121
:100CD400E4E700200DF10701EDE722F4FF7222F0B2
:100CE4000102ADE700ED00E0044B5A6942F0100246
:100CF4005A615A6942F480625A61704700ED00E01B
:100D0400EFF30880EFF3098101B57246FFF75AFF4C
:100D140001BD00BF002320210348C2180133452B25
:100D240082F80013F9D1704700E100E0FFF73EFDBF
:100D3400202080F3118808484FF40061401880F3A4
:100D44000988EFF314800221084380F31488BFF369
:100D54006F8FFFF78FFD000058030020084B9B683E
:100D640083420BD1EFF3058343B1064B5A6842F03B
:100D740080525A605A6A22F400425A6202F014BB4A
:100D84002003002000ED00E01FB5094C094A23466A
:100D94000121094800F0EAF800230393074B0121DD
:100DA400E41A01A80193029400F0EAF804B010BD1B
:100DB4000000072000000020684B0000C80000204D
:100DC40010B50C7A0B6804F01F0223F01F031A43BA
:100DD400CB68640923F01F03054943EA440343F045
:100DE4000103C1F89800C1F89C20C1F8A03010BDDF
:100DF40000ED00E02DE9F04F0F46144606464FF093
:100E040000084E4D85B0B84580F29480D6F8049021
:100E1400B9F1000F36D0B9F11F0F40F2898019F0F3
:100E24001F0F40F08580D6F800A01AF01F0F7FD165
:100E3400504603F0B0F8834609EB0A00013803F08A
:100E4400AAF8834574D11BF1160F71D05C456FDD90
:100E5400C5F898B0D5F89C10C5F898B0D5F8A0306E
:100E640021F01F0143F01F0AD6E900321A449942C7
:100E740002F1FF391ED1CA4508D131465FFA8BF021
:100E840003F092F808F101080C36BCE73146C5F8C6
:100E940098B0D5F89C3022F01F0203F01F031343CF
:100EA400C5F89C30E0B203F07FF810F1160F3FD084
:100EB400441CE7E7C5F898B0D5F8A020013B23F01F
:100EC4001F0302F01F021343CA453146E0B2C5F8BE
:100ED400A030E8D003F068F810F1160F28D0C5F858
:100EE40098B0D5F89C209DF808300AF1FF3A62F3D7
:100EF40004038DF80830D5F8A0309DF808205B086D
:100F040063F347128DF80820D6E9003213440093A6
:100F140023F01F03411C5344A3EB0903C8B223F07D
:100F24001F030728039303D86946FFF749FFBFE768
:100F34006FF01504204605B0BDE8F08F00ED00E029
:100F44000522044BC3F89420BFF34F8FBFF36F8F78
:100F5400704700BF00ED00E0BFF35F8F0022024B3B
:100F6400C3F89420704700BF00ED00E010B5034CB7
:100F74002278FFF73FFF207010BD00BF520300200E
:100F84002DE9F74F294D8A4606464FF00008AB4637
:100F9400274FD0451BDAD6F80490B9F1000F3FD0A3
:100FA40031680846019102F0F6FF0199044609EB05
:100FB4000100013802F0EFFF84424FF014021D4B90
:100FC40008D002FB08F36FF015024BF8032003B0BE
:100FD400BDE8F08F14F1160F2C60F8D01978A142F7
:100FE400F5DD02FB08B0C7F89840C7F89840D7F879
:100FF4009C4000F10801007B64F304000871D7F8F9
:10100400A0000C79400860F347140C71D7F89C10C9
:1010140021F01F016960D7F8A01021F01F01296198
:1010240008F1010814350C36B3E700BF2002002094
:1010340000ED00E05203002038B50E4D2C68082C5A
:1010440015D80020FFF788FF0B4B0C4AC3F8C020CB
:10105400844205D10A4B00201C70FFF771FF38BD94
:10106400696801EB0011FFF7ABFE0130F0E74FF0C8
:10107400FF30F4E7784B000000ED00E0AAFF4400E5
:101084005203002008B5024B1B689847002008BD96
:1010940034020020034B044A1860937843F002039F
:1010A40093707047340200200400002008B50649FC
:1010B400064821F00701C1F1005202F5E02202F0D6
:1010C40023FE002008BD00BFAB10002098100020B4
:1010D400084B70B5C31A0D4607499B100446594383
:1010E4004022064802F09EFF2B4601462046BDE8FA
:1010F400704018474C020020B76DDBB698480000DA
:10110400402373B50B4C0093041B0B460D460A4950
:10111400A41061430646094A094802F0B0FF011EC3
:1011240005DA30462B4602B0BDE87040184702B0DD
:1011340070BD00BF4C020020B76DDBB6EF4000006D
:10114400984800002DE9F8430022012106460520B5
:10115400FFF776FB114801F05BF8114B984219D167
:1011640003F078F900244FF01C090C27DFF83480D1
:101174003569414609FB045002F06EFE002807DB86
:10118400012307FB04551C44042CAB67F0D1002059
:10119400BDE8F8836FF00400FAE700BFE111000036
:1011A4000000AD0BA04B000001460C2300224B4372
:1011B40070B50848C41878331844D4E91C5622671B
:1011C40002F01DFF2DB132462B46BDE870400248A7
:1011D400184770BD4C02002098480000062812D819
:1011E400DFE800F0040F1111110D0B00064B986F8E
:1011F40010F0070007D1FFF7D7BF0220FBE7032059
:10120400F9E70120F7E770474C02002008B54FF0DA
:101214002003EFF3118183F31288BFF36F8F124A17
:10122400136843F002001060DA0708D481F31188D0
:10123400BFF36F8FBDE80840012003F01DB94FF0E4
:101244005023D3F80C24D3F80C34DB07EED507482D
:1012540002F0D5FE81F31188BFF36F8FBDE808401B
:101264000020FFF7A1BF00BFEC020020C402002051
:101274001FB500220123CDE902236B46084ACDF8AD
:1012840000D0CDF804D002F029FF002805DB4FF48C
:1012940080420023684601F0C3FD05B05DF804FBFD
:1012A4002541000010B54FF02003EFF3118483F3C0
:1012B4001288BFF36F8F074A136823F00201DB071C
:1012C400116002D4012003F036F984F31188BFF3CE
:1012D4006F8F10BDEC0200202DE9F041012207467A
:1012E4003749D1E8EF3FC1E8E02F0028F9D133B9FD
:1012F400344935484B60CB608A6002F0C0FD7B1EE8
:10130400012B2BD8012F07D14FF05023D3F81C34D5
:1013140003F00303022B21D003F087F90546F8B943
:101324002A4B1B78E3B14FF0502302220646C3F840
:1013340008234FF05024DFF89880D4F81824D4F808
:101344001834D20316D503F00303022B01D0012F66
:1013540010D175B386F31188BFF36F8FBDE8F081A8
:101364004FF02003EFF3118683F31288BFF36F8FDE
:101374000125DEE7C5B13046FFF734FAD4F8183555
:10138400DBB2012BD9D1D4F80421002AD5D0002214
:10139400C4F80421D4F804210222C4F81825202218
:1013A400C8F88021A360C8E70021212001F0DCFFF8
:1013B400E4E74FF050230222C3F80423CEE700BF32
:1013C4004802002038020020680200205503002053
:1013D40000E100E008B5074803F00CF938B106480D
:1013E400FFF758FE0448FFF72DF8002008BD6FF002
:1013F4001200FBE7D4480000011400000A2838B5A5
:101404000446074D04D1AB680D2128465B68984714
:10141400AB6803485B68E1B29847204638BD00BF1B
:10142400D448000030B5406801F01F04057BB2F5D4
:10143400001F85B044EA451405D1204601F0EAF9BD
:10144400002005B030BD0025B2F5800FCDE902556E
:1014540014D1B3F1007F0CBF042305238DF80830A9
:1014640000232046194602AA00F0F6FF224B9842B8
:101474003CD10121204601F081F9E1E7B3F1C06FCD
:1014840027D0B3F1007F14BF012302238DF8083065
:10149400836823FA01F111F00101E1D1B2F1A07FD7
:1014A400DED104F01F03620903F1800313D0012A83
:1014B4001FD1124A52F82330DB07D1D40DF10705AE
:1014C4002946204601F004F90D4B984205D00395B6
:1014D400C6E70323DAE70B4AECE7284601F048F9AC
:1014E400054B9842F3D06FF00B00AAE76FF015009C
:1014F400A7E751F82330FFDE0000AD0B002884502D
:101504000400AD0B0025845010B501F021F9044608
:1015140068B901F0F5F8084B98420AD1214607480A
:1015240001F0D0F8224605210D20FFF789F90020AB
:1015340010BD6FF00400FBE70000AD0B4515000083
:101544004209034670B502D0012A17D070BD0D4E72
:10155400326951680029F9D0012503F01F030C6892
:101564009D400029F2D08A682A4002D030464B6858
:1015740098472CB1236821461C46F2E7024EE7E760
:101584002346F8E7C0480000AC4800002DE9FF41BD
:10159400476801F01F053B7B144645EA43150E4698
:1015A40028460DF1030101F093F814F4403F8046FE
:1015B4000BD1284601F054F93C4B984503D19DF8D2
:1015C400030001F0CFF800200CE000232846194660
:1015D40002AACDE9023300F03FFF344B984204D015
:1015E4006FF0150004B0BDE8F081804503D19DF88B
:1015F400030001F0B7F8A30349D540F206332340B2
:10160400B3F5837F19D00CD8062B17D004D8ABB10F
:10161400022BE5D1042311E0B3F5807FE0D101234F
:101624000CE040F20222934226D0B3F5407F25D04D
:10163400B3F5007FD4D1022300E007238DF80430F2
:1016440084F48033C3F30043E0068DF805304CBFC7
:101654000323C4F3401321038DF8063010D501236E
:101664007A68B34093600022284601A900F0ACFFD9
:101674000E4B9842A7D0B3E70523DFE70323DDE74A
:10168400620341BF01237A68B340D360EBE7E3060A
:101694004FF000034CBF0324C4F340141A462846F9
:1016A40001A98DF8044000F0D7FEE1E70000AD0B7E
:1016B400036803F01F025B09026004D0012B034896
:1016C40018BF002070470248704700BF00288450AC
:1016D400002584502DE9F04F154682464FF001084D
:1016E400DFF8789185B000EB8101514503D10020EA
:1016F40005B0BDE8F08FDAF8003003F07F04C3F3DF
:1017040043277F2C4FEA134308BF4FF0FF34222BAB
:1017140000F2A180DFE803F012222A422D34429F16
:101724009F9F9F45719F9F9F9F9F9F9F9F9F747F98
:1017340082859F9F9F888E9194979A00C5F80C4547
:10174400601C1AD003A80394FFF7B2FF0126039B81
:1017540008FA03F383604FF0010B2BE0C5F814453E
:10176400631C0AD000264FF0000B23E0C5F808459F
:10177400E6E7621CC5F808456BD10AF1040AB4E730
:10178400631CC5F80C45F8D0012603A80394FFF7A1
:101794008FFF039B08FA03F3C360DCE7C5F8104529
:1017A400DEE7C5F80845002FDAD1671CE5D000262E
:1017B4000627B346DAF8003003A803F40052002ADF
:1017C4001CBF01264FF0000B01930394FFF770FF39
:1017D400039A019B00EB8200D0F80022C3F3C114EA
:1017E4003B0243EA840343EA0B0302EA090213437C
:1017F40043EA4603C0F80032BFE7C5F80C45D2E718
:10180400C5F86045661CDAF80030B6D0C3F38033FF
:10181400002BB9D096E7C5F86445F3E7C5F86845E9
:10182400F0E7C5F86C45EDE7C5F82445621CA4D083
:10183400012698E7C5F8284582E7C5F83045F5E75D
:10184400C5F83445F2E7C5F83845EFE7C5F83C4537
:10185400ECE7002699E76FF0850049E7F0F0FCFF1C
:10186400F0B54B79012B29D0032B24D110278B7988
:10187400032B20D1CE790EB1012E1CD10A79012A75
:101884001ED0022A20D0B2B914460B684568B3F5BD
:10189400164FD5F800C06ED033D8B3F5165F6DD0AF
:1018A4001CD8B3F5966F6BD010D8B3F5967F6AD079
:1018B400B3F5167F6AD06FF085005BE00027D6E7AA
:1018C4004FF480740E22E0E70024FBE7B3F5166FB3
:1018D4005FD0B3F5965FEED1384B3CE0B3F5E14F02
:1018E4005AD007D8B3F5615F58D0B3F5964FE2D11B
:1018F400334B30E047F61225AB42DCD14FF4000302
:1019040029E0B3F5613F4BD013D8B3F5963F4AD0E5
:1019140009D84DF6C025AB4247D0B3F5614FCAD1C3
:101924004FF46B0317E0B3F5E13FC4D14FF0EB7311
:1019340011E0B3F5612F3BD008D8224DAB423AD029
:10194400B3F5E12FB7D14FF0E86304E01E4DAB428D
:10195400B1D14FF080530569CCF8243543683A433C
:101964001B6834432243C3F86C252B1D03C983E849
:1019740003000020F0BD4FF41D03ECE7134BEAE72E
:101984004FF49E23E7E74FF4A033E4E74FF41C330E
:10199400E1E74FF41D23DEE70D4BDCE70D4BDAE7FF
:1019A4004FF06C73D7E70C4BD5E74FF46503D2E7E0
:1019B4004FF07063CFE74FF08063CCE700B01300C3
:1019C40000A04E0090D0030040420F0000502700BA
:1019D40000C0750000F03A0000903A012DE9F74389
:1019E4008046002201210820FEF72AFF0820FEF786
:1019F4000BFF0021D8F80470D8F810603C6801AAE5
:101A0400C4F80015C6F80080D7F80C90484602F0D8
:101A1400D7FB051E4CDB019BD9F800201979186807
:101A2400FFF758FE051E43DB4046311DFFF718FF44
:101A3400054600283CD17B68990712D506F11800A9
:101A440000F04EFC1E4B984236D1307E04F10C025D
:101A540004F5907102F046FC0120337E984000F0BA
:101A6400D1FB0823C4F800353B7A53B9C4F81031CC
:101A7400D4F810317369C4F834350123C4F8383507
:101A840023607B689A075CBF4FF48073C4F8043307
:101A94007B68DB0644BF4FF48003C4F80433336926
:101AA400C4F844350023C4F848350123A360E36037
:101AB400284603B0BDE8F0836FF00405F8E700BFE3
:101AC4000000AD0BF8B504460D46076902F0ADFD04
:101AD400B0B92E4B1B789BB16426606802F0A6FB5C
:101AE40000BB012002F0FCFB013EF6D100212120C5
:101AF40001F03AFCF0E786F31188BFF36F8FF5E746
:101B04004FF02003EFF3118683F31288BFF36F8F36
:101B14006068314602F08AFB90B986F31188BFF3FE
:101B24006F8FEDE74FF02003EFF3118683F31288F4
:101B3400BFF36F8F6068314602F078FB0028DAD07B
:101B44003B691D70626838691368C3F84405012055
:101B5400C3F848050020C3F82001D3F82051C3F886
:101B640058015268D3F85801D20608D50820626893
:101B74001268C2F800054FF48002C3F8042301225E
:101B84009A6081F31188BFF36F8FF8BD550300206D
:101B94000123834070B5DC430B4AD2E8EF1F01EA0E
:101BA4000405C2E8E65F002EF7D14FF4803282408C
:101BB4000648C0F80823BFF35F8FBFF36F8F0B4253
:101BC40014BF0120002070BD0C0300200050015000
:101BD40070B40E4922F07F46D1E90034D01AC318FC
:101BE40044F10004C1E90034A6F50013B3F5400F35
:101BF40009D2074B1B681A0A1B069C19054B42F1B4
:101C04000005C3E9004570BC01F004BDD800002004
:101C140010030020E0000020D9B101230D4A8340C5
:101C2400D2E8EFCF4CEA030CC2E8E1CF0029F7D1A8
:101C34004FF48033084A8340C2F80433074BD3E897
:101C4400AF3FC340DB0742BF4FF40012044BC3F85D
:101C5400002170470C0300200050015008030020AD
:101C640000E100E00D4B1868010A0006BFF35F8F26
:101C74000B4BD3F80435181841F10001B3F5801F5C
:101C84000AD2084BD3E90023904271EB030303D239
:101C940010F1807041F10001704700BF1003002073
:101CA40000500150E00000202DE9F04F85B01646A9
:101CB4001F4604469DF840A0FFF76AFF0190FFF716
:101CC400D1FFB04271EB070352D23B4B301A67EBA2
:101CD4000101984271F100014DD2384B03EB04131A
:101CE400D3E902239F4208BF964258D04FF480386C
:101CF400334908FA04F8204626F07F4BC1F848839C
:101D040002F0DDFA4FF00309584604F15005AD0026
:101D1400ADB205F1502504F5A87305F5803502939D
:101D2400029A20F07F4341F82230C1F84483D1F86D
:101D34000435244AC01A033820F07F4090422ED93B
:101D4400286868B1D1F80435A3EB0B0020F07F407C
:101D5400B0F5000F039322D9204602F0B0FA039B9A
:101D6400BAF1000F07D109EB030009F10109D7E724
:101D7400BAF1000F09D06FF0150520460199FFF75D
:101D84004BFF284605B0BDE8F08F01230E4AA3405F
:101D9400D2E8EF0F1843C2E8E10F0029F8D1074950
:101DA4000E982301C8500F9B01EB04120025C2E9D1
:101DB40002675360E1E700BF01008000C800002013
:101DC40000500150FDFF7F00080300207FB500256F
:101DD4004FF0FF304FF0FF31194C1A4B0226C4F874
:101DE4000833C4F84833184BC4F80855C3E9020152
:101DF4004FF480334FF40012C4F80433134B012121
:101E0400C4F804631520C3F880212A46FEF718FDA0
:101E14001520FEF7F9FC01230D4AA360236013602B
:101E24000C4B0D4A009328460023CDE90155FFF7DA
:101E34003BFF3046FFF750FA284604B070BD00BFA0
:101E44000050015003000F00C800002000E100E032
:101E54000C030020D51B0000FFFF7F002DE9F74392
:101E64002E4BD3F8042390070BD5D3F8042142B1A9
:101E74000022C3F804212A4AD3F804311368013339
:101E84001360264AD2F80433D90327D5254BD3E867
:101E9400EF1F21F00100C3E8E40F002CF7D1CB07BA
:101EA40002D4D2F84031CBB100251C4CC4F84051C7
:101EB400D4F84031FFF7D6FE4FF02003EFF3118240
:101EC40083F31288BFF36F8F174BD3E90267B042D5
:101ED400B94106D282F31188BFF36F8F03B0BDE816
:101EE400F0834FF0FF38D3E900104FF0FF391D6045
:101EF400C3E902894FF48033C4F84833C4F840512D
:101F0400D4F8403182F31188BFF36F8F0029E5D0F4
:101F1400009032463B4628468847DFE70050015090
:101F24001003002008030020C80000201FB5431C34
:101F340022D0012822DD124A124B9042D4BF04461B
:101F44001C46FFF78FFE104B0E49D3E90023801A7D
:101F5400B0F5000F28BF002404448C4228BF0C466F
:101F640000200A49A218CDE90100009143F10003C1
:101F7400FFF79AFE04B010BD024CE2E70124E0E74B
:101F8400FEFF7F00FFFF7F00D8000020D51B00006C
:101F940008B5FFF767FE024B1B68C01A08BD00BFF7
:101FA400D80000204FF47F03D3F83021D3F8343124
:101FB400072A05D1023B032B02D8024AD05C7047A2
:101FC40000207047354D000008B5FFF7EBFF58B10E
:101FD400644BD3F8202A3AB90D21C3F8201A012101
:101FE400C3F81C19C3F81C290022D30003F57F038E
:101FF400D3F80013013107D0D3F800130132D3F81A
:102004000433202A0B60F0D1FFF7CCFF002840F006
:10201400A080FFF7C7FF40B1534B544AC3F83025A3
:102024004FF050230122C3F858254FF47F03D3F80F
:102034003021D3F83431072A09D1023B032B06D8C7
:102044004B4AD35C1BB100224A4BC3F84C25FFF723
:10205400A9FF50B14FF05023D3F80024D10742BF59
:102064000022C3F81421C3F818214FF47F03D3F8D6
:102074003021D3F83431072A09D14FF05023D3F853
:102084000024D20744BF6FF00102C3F80024FFF715
:1020940089FF18B16522334BC3F80C274FF47F0333
:1020A400D3F83021D3F83431072A16D1314BD3F881
:1020B4002034002B11DA4FF050230322C3F81825E3
:1020C40001229A60D3F80421002AFBD00022C3F82D
:1020D40004210122DA60C3F818254FF47F03D3F8F2
:1020E4003021D3F83431072A23D1023B032B02D801
:1020F400214AD35CEBB17E221A4B1B49C3F80C274F
:10210400C3F83C297F231D4AC2F818310023C1F8C3
:10211400043EC1F8083E01F54821C1F81031C2F867
:102124002431C2F82C3102F5FF1202F58052C2F8B4
:10213400A032134AD2F88C3043F44063C2F88C3096
:10214400104A114B1168C3F84415D269C3F84C25E1
:1021540008BD2922034BC3F80C270322C3F83C27EC
:1021640057E700BF00400050009003504400EFBE0A
:10217400314D0000002003502D4D00000020005080
:1021840000ED00E00080FF000060005030B50468FE
:10219400ACB1B4FA84F30122C3F11F03DBB29A4059
:1021A40024EA0202D0E8EF5FA54204D1C0E8EC2F94
:1021B400BCF1000FF6D1EAD102480B7030BD0248E1
:1021C400FCE700BF0000AD0B0200AD0B10B50368C7
:1021D400CB40DB0710D401238B40026843EA0201A1
:1021E400D0E8EF4F944204D1C0E8EC1FBCF1000FDB
:1021F400F6D1F2D1014810BD0148FCE70000AD0B57
:102204000400AD0B014BC3F8040570470070015086
:10221400044B1A7922B9012218601A7102487047D6
:1022240002487047140300200000AD0B0C00AD0BF6
:102234004FF0502310B5D3F8002152B10020C3F859
:102244000001D3F800210122C3F80823234B1B68A3
:1022540098474FF05023D3F8042182B10022C3F8E9
:102264000421D3F80421D3F81824D3F81824022124
:1022740002F00302012A28D1C3F818159A604FF01E
:102284005023D3F8202162B10022C3F82021D3F8CF
:1022940020214FF48072C3F80823104B05201B68DB
:1022A40098474FF05023D3F82421AAB10022C3F851
:1022B4002421D3F824214FF40072C3F80823074BD8
:1022C4000620BDE810401B681847C3F80813034BE9
:1022D40001201B689847D2E710BD00BF14030020FB
:1022E40001460148FFF752BF34000020036803F0A1
:1022F4001F025B09026004D0012B034818BF0020B1
:1023040070470248704700BF00288450002584505D
:10231400034A4309D35C00F01F001844C0B270475D
:102324004E4D000008B5FFF7F3FF034B083033F8B8
:102334001000C0F3401008BD3800002008B5FFF7B6
:10234400E7FF034B083033F81000C0F3400008BD2A
:102354003800002008B5FFF7DBFF034B083033F8E3
:102364001000400B08BD00BF3800002070B50546C2
:10237400FFF7CEFF0C4C083034F810300E46DA0567
:1023840008D5C3F3432304EBC302284654F833307F
:1023940052689847A3682BB131462846E268BDE8E5
:1023A4007040184770BD00BF3800002010B5FFF71B
:1023B400AFFF124A083032F81030D9051CD5C3F3E8
:1023C400432123F4F85322F81030002002F10E04C4
:1023D40034F8023F13F4807F03D0C3F343239942BC
:1023E4000AD001303028F3D1002342F831300448B8
:1023F400BDE81040FFF7EABE10BD00BF3800002062
:10240400AC00002001460020F0B5012506460F4A25
:102414000F4C02F13043A3F551439B0805FA03F333
:10242400194204D0176817B11660176818430432AC
:10243400A242EED1074BD3F87C2132B10022C3F87B
:102444007C21D3F87C3140F00040F0BD00D1005035
:1024540020D1005000D000502DE9FF4105469046A0
:102464001E46FFF755FF044609B32846FFF766FFEB
:1024740018B12846FFF756FF28BB00230DF10F02C1
:10248400CDE900338DF80E308DF80F3028460B4619
:102494000DF10E0102F051F8474A04F1080132F837
:1024A400113023F0020343F0010322F81130B8F194
:1024B400000F32D0284698F80070D8F80410FFF7BF
:1024C4003DFF10B1F1B13D4829E03B4804F1080C4F
:1024D40030F81C3023F02003DB04DB0C20F81C3024
:1024E40081B1032FEFD8D8F8042092F800E07246A7
:1024F400920002F1A04202F550429FB9C2F8107551
:10250400C2F810752C4A04F1080132F8113023F096
:102514001C0343EA870322F811301EBB284804B089
:10252400BDE8F081D2F8101543EA4E3321F00301DF
:10253400C2F81015D2F8101543F0200321F44F31DE
:1025440021F44071C2F81015D2F81085290201F463
:102554007C5141EA080141EA0741C2F8101520F80C
:102564001C30CFE72846D6E90076FFF71FFF002F7F
:10257400D4D0114DD5E90023974201D19E4218D001
:1025840010480DF10F01FFF701FE0D4B9842C6D123
:102594009DF80F2005EBC20308345E6035F8143053
:1025A40045F8327043EA422343F4807325F814302B
:1025B400B4E70022EEE700BF380000200400AD0BB2
:1025C4000000AD0BAC0000202DE9FF410446164687
:1025D400FFF79EFE054631B32046FFF7AFFE20B954
:1025E4002046FFF79FFE002863D1334F05F108080A
:1025F40037F8183013F01C0F02D04B78012B58D049
:1026040001238DF80F3000234A1CCDE90013204626
:102614008B1C0DF10F0101F090FF37F8183043F0D7
:10262400030327F818301EB9244804B0BDE8F0812C
:102634002046FFF783FE00283BD096F800C0002315
:1026440061461D4F05F1080037F81050890025F048
:10265400200501F1A041ED0401F55041ED0CC1F854
:10266400103527F81050C1F810357278002ADBD0E5
:10267400D1F81035B67823F4991323F4F853C1F83C
:10268400103512042302D1F810E502F4403203F4A9
:102694007C531343320543EA0E0302F4801245EAE5
:1026A4004C35134345F02005C1F8103527F8105078
:1026B400BAE70348B9E700BF380000200000AD0BBB
:1026C4000400AD0B014BC3E9020170473800002040
:1026D40010B50446FFF726FE50B12046FFF718FE5A
:1026E400044B083033F8103003485B0B0B7010BDFB
:1026F4000248FCE7380000200000AD0B0400AD0BDD
:1027040070B50F4C94F87860BEB90E4D6022314616
:1027140004F1100002F08CF80D20C5F87C61D5F8A6
:102724007C31FEF771F84FF00043C5F80433012300
:10273400054884F87830636770BD0448FCE700BF3F
:102744003800002000D000500000AD0B0500AD0B98
:10275400034B93F87800003818BF0120704700BF7E
:102764003800002001460148FFF730BDA8000020D2
:1027740001460148FFF70ABDA800002037B504460A
:10278400FFF7D0FD08B32046FFF7D8FD0546E0B9B2
:102794002046FFF7DFFD03B29B0003F1A04202F5E0
:1027A400514203F1A043156003F550431268D3F876
:1027B400102542F00102C3F8102521B10123134A68
:1027C4008340C2F8043303B030BD2046FFF7A0FDB8
:1027D4000F4B083033F81030C3F38203042B11D0AD
:1027E400052B11D001A80194FFF780FD019B01691D
:1027F400D94001F001010231204603B0BDE8304068
:1028040001F0E4BE0321F7E70221F5E700D0005010
:102814003800002010B50446FFF784FDC0B12046FF
:10282400FFF78CFDA0B92046FFF794FD01230B4A66
:102834008340C2F8083303B29B0003F1A04303F5BD
:102844005043D3F8102522F00302C3F8102510BD1D
:102854002046BDE81040002101F0B8BE00D0005071
:1028640073B50446FFF754FD1A4E00F1080536F817
:102874001530DB072CD52046FFF7CCFF2046FFF7A9
:1028840051FD68B12046FFF765FD002203B29B00AD
:1028940003F1A04303F55043C3F81025C3F81025F2
:1028A4002046FFF783FD002301A826F81530019484
:1028B400FFF71CFD019B00EB8300D0F80022064BC0
:1028C400134043F00203C0F80032044802B070BD64
:1028D4000348FBE738000020F0F0FCFF0000AD0BDC
:1028E4000400AD0B2DE9F04F604B87B0D3F804031F
:1028F400C0B240F00040FFF785FD051E80F29980CC
:10290400DFF86C91D9F820300493C9F82030594B82
:102914001A6A05921A624FF0000A0DF11008564B1C
:102924000AEB030B4CE093FAA3F3B3FA83F39BF89B
:102934000040019343EA44142046FFF7E9FC4F4B5F
:10294400083033F810700120019B0394DA0803F077
:102954000703984018F80230B90823EA000308F87E
:10296400023003A8FFF7C2FC039BC7F3820680333F
:1029740050F823304A073746C3F301432CD5204689
:102984003946DEB2FFF7F2FC03A80394FFF7AEFC6E
:10299400039B803350F82330C3F301439E4207D195
:1029A4000021204601F012FE3146204601F00EFEC1
:1029B40003A80394FFF79AFC0123039A934003624C
:1029C400D8F80030002BAED108F10408BAF1000F9A
:1029D4001DD14FF0010AA2E7022B0CD1032120469E
:1029E40001F0F4FD06F00503012BE1D13946204640
:1029F400FFF7BCFCDCE702212046019301F0E6FD71
:102A0400032EF3D0019B032BD2D1022EEDE74FF01E
:102A14000040FFF7F7FCD9F8203016490493C9F8B1
:102A240020300A6A134305920A627FF474AF25F0DA
:102A34000045012415B907B0BDE8F08F95FAA5F358
:102A4400B3FA83F304FA03F29B0003F1A04303F502
:102A54005043D3F81005D3F81015C0F30520C1F383
:102A6400014125EA0205FFF781FCE3E700D00050AD
:102A740000258450002884505E4D0000380000205A
:102A840038B503464FF02002EFF3118582F3128824
:102A9400BFF36F8F01F0D4FE064A1458184601F0B4
:102AA400BDFD85F31188BFF36F8F2046BDE8384024
:102AB400FEF754B908000000104B70B553F82040DD
:102AC400013053F82060A64200D870BDD4E9003527
:102AD40095B153B12846984738B10028B8BF404251
:102AE400FF28A8BFFF20EB681870EA68537843F00A
:102AF400010353700834E6E79847FBE7784C00007D
:102B0400012208B5094B03201A70FFF7D5FF00F026
:102B140005FE0420FFF7D0FF00F002F9FDF780FC6A
:102B2400034A137B23F00103137308BD55030020EC
:102B34006801002008B50348034A0021121A01F075
:102B440070FD08BDC80000205803002000230122A6
:102B540070B586B0CDE904230F220193CDE902328A
:102B640014234FF4A0720446114D124E03FB00557A
:102B7400114906EBC01602FB0011104B30460095BC
:102B840000F090F8737B2C7423F0040373730C4BE4
:102B9400013403EBC4236B600A4BEE60D3E8EF1FF0
:102BA4000131C3E8E21F002AF8D106B070BD00BFAE
:102BB40020030020E8000020580B00203B460000C2
:102BC400580300201C03002080B50020A6B0FFF7A6
:102BD40073FF2D4B03F5006282F3088883F30A88A0
:102BE4000024E023294D2A4E85F82230EC772C76F8
:102BF4006C76AC7685F820406B6A264F43F4E0236C
:102C04006B6285F82340FEF76FF8FDF7D1FD4FF0B6
:102C1400FF33AB62EB62FEF70FFAFEF7B5F840F252
:102C24000113ADF8243006ABB360CDE91E44219402
:102C340001F0DFFC0120FFF73FFF0220164DFFF7F4
:102C44003BFF00F007FB154B756105930123144905
:102C54004FF48062CDE9034328463B46CDE9014465
:102C6400009400F01FF806466A7B284622F004020E
:102C74006A7301F026FD2046FFF768FF3A463146A5
:102C84002846FDF795FE00BF5803002000ED00E044
:102C940020030020052B0000680100206C4D00007B
:102CA400980C00202DE9F043984685B000F15803B4
:102CB400C0E91633109B002603730423073222F065
:102CC400070543730F9B01EB05090F4683734946C0
:102CD400C0E906668660C6730446FDF797FE0E9B40
:102CE400073020F00700A066C4E9187502930D9B15
:102CF400A9EB000901930C9B4A46009339464346CD
:102D04002046FDF739FE054B66659B6803B1DB6E13
:102D14004846E36605B0BDE8F08300BF2003002009
:102D24002DE9F043294C2A4D87B02646AE4204F1E2
:102D34002C040FD300F05EFA4FF4004640F2E7375C
:102D4400224CDFF89090AC4220D307B0BDE8F043AA
:102D540000F064BA54F8043C059354F80C3C049312
:102D640054F8103C039354F8143C029354F8183C60
:102D7400019354F81C3C009354E9092354E90B01D2
:102D8400FFF790FF54F82C3C5E65CEE7636A5A1C4B
:102D94000DD00021384623EAE373C3FB060151EA50
:102DA400C333D4F8008004D1404600F0D3F92C3466
:102DB400C9E74FF47A720023FDF7CAF902460B46BD
:102DC40008F11800494600F0AFFBF0E7104B000093
:102DD400104B00002B47000038B504464FF0200389
:102DE400EFF3118583F31288BFF36F8F01F09FFC1B
:102DF40048B10022826701F064FC2946BDE83840EE
:102E0400064800F095B9D4E902329A4218BF01335A
:102E1400A36085F31188BFF36F8F38BD560300207C
:102E240013B54FF02004EFF3118184F31288BFF33C
:102E34006F8F846844B1013C846081F31188BFF3CF
:102E44006F8F002002B010BD52EA030406D181F353
:102E54001188BFF36F8F6FF00F00F3E7CDE9002304
:102E64000246024800F046F9ECE700BF5603002092
:102E7400C3897F2B12D80A4B1B6863B1094B90F9A5
:102E84000E201B689A4209DB437BDB0606D1064B06
:102E9400C31A18BF012303F0010070470023FAE7A7
:102EA4004803002044030020E80000200122044BD2
:102EB400C01A044BC0105843034B1A54704700BF48
:102EC400E8010020ABAAAAAA5603002070B50E4B55
:102ED4000E4C1E7C054606EB460304EBC304204659
:102EE40001F057FC00220A4B28469A55FFF7C0FF11
:102EF40048B1084B2046BDE870401A680649013ABB
:102F0400D31700F011BB70BD20030020E80100209E
:102F14005603002048030020B12E000038B50D4DA3
:102F24002B4653F8184F9C4200D004B9EC68AB68A8
:102F340038B95A7BD20604D1A26912B9DA897F2A38
:102F440005D89C4202D02046FFF7C0FF23466B61A0
:102F540038BD00BF2003002070B590F90D20014654
:102F6400002A437B04DA03F07F03437301F06FFB11
:102F7400154A4B7B104663F07F034B7350F8183FA0
:102F8400D469834208BF002323B9C1E90004216046
:102F9400D1610CE091F90E5093F90E60B5420ED058
:102FA400AE420CDD5868C1E9003001605960906898
:102FB400BDE87040431A58425841FFF7AFBF9C42E6
:102FC400E3D01B68E0E700BF2003002070B490F951
:102FD4000D30427B002B29DBD30627D183692BBB21
:102FE400134962F07F0242730A4652F8184F944222
:102FF40018BF2346CC6923B9C0E900242060C86106
:103004000CE090F90E5093F90E60B5420AD0AE422E
:1030140008DD5A68C0E9003210605860002070BCB6
:10302400FFF77CBFA342E7D01B68E4E770BC70479E
:103034002003002008B590F90D200146002A437BA7
:1030440004DA03F07F03437301F001FB044B986837
:10305400431A58425841BDE80840FFF75FBF00BF1C
:103064002003002070B515461C46064601F001FBFE
:10307400B4F1FF3F08BFB5F1FF3F08D02A4623460D
:1030840006F118000249BDE8704000F04DBA70BD69
:103094002B47000038B54FF02003EFF3118583F37D
:1030A4001288BFF36F8F104B104A9C681068A042BF
:1030B40006D1FFF70BFF85F31188BFF36F8F38BD7F
:1030C40000211B7C11600A4AD35C002BF3D02046FC
:1030D400FFF7CEFE0028EED0637BDB0602D120464C
:1030E400FFF73AFF2046E4E72003002040030020D6
:1030F4005603002070B50C480C4D86680C462E60B3
:103104001146DDE904234FF02006EFF3118586F321
:103114001288BFF36F8F8068FFF7A4FF2046BDE8D5
:103124007040FDF7CBBB00BF20030020400300200C
:1031340049B9EFF3058030B9054B5A699B689A4247
:1031440001D0FDF7BBBB81F31188BFF36F8F7047CC
:103154002003002010B54FF02002EFF3118482F316
:103164001288BFF36F8F427B510704D484F3118814
:10317400BFF36F8F10BD22F004024273FFF726FFE6
:103184002146BDE810400148FFF7D2BF5703002095
:1031940070B50446183001F0FCFA4FF02003EFF349
:1031A400118683F31288BFF36F8F94F90D20637B2C
:1031B400002A05DA03F07F032046637301F047FA1F
:1031C4000B4D637BA86843F010036373031B5842E1
:1031D4005841FFF7A3FE86F31188BFF36F8FAB68E6
:1031E400A34203D1BDE8704001F0C9BA70BD00BF6D
:1031F400200300204FF02003EFF3118183F31288A2
:10320400BFF36F8F044B9A68D37B013BD37381F375
:103214001188BFF36F8F70472003002010B54FF063
:103224002003EFF3118483F31288BFF36F8F084BED
:1032340000209A68D37B0133D373FFF76FFE84F3C6
:103244001188BFF36F8FBDE8104001F098BA00BF3A
:1032540020030020024B03F11802C3E90622704741
:1032640020030020F8B54FF02003EFF3118583F31A
:103274001288BFF36F8F19498868437B03F07F037B
:10328400437301F0E4F908468B685A7B62F07F02CD
:103294005A7350F8182FCC69824208BF002222B911
:1032A400C3E900042360CB610CE093F90E6092F94A
:1032B4000E70BE420ED0B7420CDD5168C3E9002146
:1032C4000B6053600120FFF729FE2846BDE8F84053
:1032D400FDF7F4BAA242E3D01268E0E7200300202D
:1032E40050EA01032DE9F04105460E4603D1FFF7EC
:1032F400B9FF00202CE0831C71F1FF332ADB01F0BD
:103304005EFA2C184FF02003EFF3118883F3128830
:10331400BFF36F8F114F124BB8681860FFF78AFE26
:10332400B86810492A463346183000F0FDF8BA68E8
:103334004046537B43F010035373FDF7BFFA01F08B
:103344003EFA201A63EB0303012873F10003D0DB78
:10335400BDE8F0816FF00104241AD3E720030020B4
:10336400400300202B470000B1F1FF3F08BFB0F13C
:10337400FF3F08B506D1084B9868FFF709FF4FF0E7
:10338400FF3008BDFFF7ACFF4FF47A7380FB0303F3
:10339400C00B40EA4340F4E720030020014B986847
:1033A400704700BF200300202DE9F04104464FF090
:1033B4002003EFF3118683F31288BFF36F8F037B2F
:1033C400D9070BD586F31188BFF36F8F404080F384
:1033D40011884FF0040002DFBDE8F081437B1A0737
:1033E40004D586F31188BFF36F8FF5E723F020022D
:1033F40042F00801D20920D14173A36813B12046D9
:1034040001F02DF904F1180001F0C3F94FF00008A0
:1034140004F15807A56DBD4200D0B5B90120FFF7EE
:103424007DFD104B9B68A342DBD1EFF30583002B9A
:10343400D7D13046FDF742FAD3E703F05F0343F0F8
:103444000803437301F003F9D7E7284601F007F9AD
:1034540005F1180001F09DF92846C5F87880FFF7BA
:10346400B5FDD7E72003002008B50648064A0749FA
:10347400121A01F0D8F8BDE80840054A0549064883
:1034840001F0D1B800000020C4000020C84D0000A5
:1034940000000000C84D000000000020034B1B6822
:1034A4000BB9FEF775BD0020704700BF4C03002028
:1034B40010B50E4B1C689C4204D1FFF7EFFF6FF070
:1034C400004010BDFFF7EAFF002CF8D0D4E9043225
:1034D4001B1A62EBE072B3F1004F72F10001EEDAF5
:1034E400002AACBF18460020EBE700BFB400002060
:1034F40030B570B10B4B5B6898420AD0036843B196
:10350400D3E90421D0E90445121941EB0501C3E9CB
:103514000421D0E9003213605A600023C0E900336B
:1035240030BD00BFB4000020B3F1FF3F08BFB2F1CB
:10353400FF3FF8B504461D4616465CD081604FF047
:103544002003EFF3118783F31288BFF36F8F0132E7
:1035540075F1FF3324DA6FF001032C49D1E900201F
:103564009B1A4FF0FF3262EB00009E1B60EB0500DC
:10357400012E70F1000301DA01260020C4E9046081
:10358400234ED6F800C07568B44508BF4FF0000C50
:10359400BCF1000F0DD1C4E900652C6074601CE01F
:1035A400FFF77CFF013645F10005361845EBE07066
:1035B400E4E7DCE90420D4E90431934271EB000E22
:1035C4001ADAD21ADCF8043060EB0100CCE90420EA
:1035D400C4E900C31C60CCF804403368B34206D08D
:1035E4009C4204D1FFF764FF0021FEF79FFC87F3A0
:1035F4001188BFF36F8FF8BD9B1A61EB0001AC45D6
:10360400C4E90431C7D0DCF800C0C1E700020020DF
:10361400B40000202DE9F84F4FF02003EFF3118C94
:1036240083F31288BFF36F8FDFF8B0A0DFF8B09098
:103634000024C9F80000DAF800000025504508BF4E
:103644000020284FE046D7E90021D9F8003080B3A4
:10365400D0E9046C4FEAE37EB3427EEB0C0B05DA4F
:10366400F61A6CEB0E04C0E9046422E0B21841EBD4
:10367400E671C0E90445C7E90021FFF739FF88F383
:103684001188BFF36F8F836898474FF02003EFF3DF
:10369400118883F31288BFF36F8FD9F80030DAF8FA
:1036A40000009B1B5045C446C9F80030CAD1D7E975
:1036B400002100249A1841EBE373C7E90023C9F8F9
:1036C4000040FFF7F5FE2146FEF730FC88F3118831
:1036D400BFF36F8FBDE8F84FFFF7DCBCB4000020E8
:1036E4004C0300200002002010B54FF02003EFF33C
:1036F400118483F31288BFF36F8FFFF7CFFE034665
:10370400054AD2E90001181841EBE37184F31188EA
:10371400BFF36F8F10BD00BF00020020014800F00E
:103724005EBA00BF744D00000FB407B504AA064B7F
:1037340052F8041B1868019200F008F803B05DF811
:1037440004EB04B0704700BF744B00002DE9F04F48
:1037540043688BB082461446019383789F0740F1F7
:103764000981002591F80080B8F1000F00F0048170
:10377400B8F1250F0BD04B1C02930135514640463E
:10378400019B98470028C0F2F5800299EAE791F876
:1037940001808B1CB8F1250F0293EED000239946CB
:1037A4001F461F2F39D8A8F12002102A0AD8DFE8B3
:1037B40002F02B0909310909092109090929092EEE
:1037C40009091F00A8F13002092A32D9B8F12A0FD9
:1037D40035D1780654F8042B00F18180002AA7BF64
:1037E40047F020079146C2F1000947F0280701E09D
:1037F40047F00107029A12F8018B0292B8F1000F08
:10380400CFD132E047F0020747F00407F2E747F070
:103814000807EFE747F01007ECE77F2F18D8A8F167
:103824003002092AD2D87E0603D50A2101FB0323DC
:10383400E0E70A2147F0200701FB0929DAE7B8F19C
:103844002E0F05D1790600F1978047F04007D1E7A4
:10385400B8F16C0F32D02AD8B8F1680F35D0B8F16E
:103864006A0F39D0B8F14C0F36D0002B48F0200243
:10387400B8BF27F04007A2F16501BCBF0023BFB267
:10388400022901D9612A2CD107344FF007089A4E36
:1038940024F007040834380763D506EB080B3746D1
:1038A4005F4560D1AE1BA9EB0809374454E1B8F178
:1038B400740F9FD0B8F17A0F9CD0D6E73A0648BF70
:1038C40047F4007747F0800794E7FE0548BF47F4C4
:1038D400007747F480778DE747F420778AE713462B
:1038E40088E7A8F16301122900F2CF80DFE811F024
:1038F40013004800CD00CD00CD00CD004800CD0020
:10390400CD00CD00CD00CD00DF00C700CD00CD003F
:103914001B00CD00960054F8043B4FF0010807AE9D
:103924008DF81C30B7E754F8046B744A002E08BFB6
:10393400164617F0400F304614BF19464FF0FF31BA
:1039440000F041FF8046A6E751462020019B98479E
:1039540000280FDB013FB845F6D34D44B946ED1BB3
:103964009BE74F46F7E7514617F8010B019B984731
:10397400002895DA4FF0FF3528460BB0BDE8F08FEC
:10398400390637D5BA0549BF073454F8040B24F077
:10399400070454F8080B27F010060028B6B232DAF0
:1039A400404246F4806607AF0A220393394600F08A
:1039B40016FF7206A0EB0707039B4BD526F0010107
:1039C400BB4289B240F38A80B8F1000F00F08280D4
:1039D40016F01002039240F083809B460E4640F29C
:1039E400064116EA010203921EBF00220BF1010BED
:1039F400039238E0FE0554F8040BCCD5B9054CBF4E
:103A040040B200B2C7E7CED17A06CCD5002BCAD1DA
:103A140027F01107BEB21F469B46E0E727F01007C8
:103A24000A22BFB23E0646D5B80549BF073454F84A
:103A3400040B24F0070454F8080B002844D127F0A1
:103A440016067906B6B242D5002B40D127F01707E7
:103A5400BEB21F4616F0100203924AD0B8F1000F0E
:103A640045D107F1010B31075CD4F20705D5D945DF
:103A740075DDA9EB0B02CB46D3195A464CE047F04F
:103A8400100710224FF07808CCE7782A06D1B8F155
:103A9400580F14BF10224FF40472C3E75146252077
:103AA400019B98470028FFF665AF023566E60822B9
:103AB4004FF00008B6E7F90554F8040BBDD5BE0570
:103AC4004CBFC0B280B2B8E727F00607BEB207AF5A
:103AD40003936BE726F01106B6B29DE70E46B9E7ED
:103AE40038460E461F4607F1020B0746BBE7384629
:103AF400F9E7BB4673E700BFBD4D0000B64D0000BB
:103B0400CDE9043251462020019B98470028FFF656
:103B140031AF059A049B01329145F1DCA5EB0B0111
:103B240093468D18039A32B3039351463020019B78
:103B340098470028FFF61EAF039BB8F1000F10D181
:103B440001355E19711B8F4227DB3E460DF11C08BF
:103B54005EBB2F44A9EB0B093D46B94436E03B4616
:103B64008BE70235514640460393019B9847002852
:103B7400039BE6DAFEE640F206410E42E1D016F07F
:103B8400020F05F101055146039314BF2B20202099
:103B940016F4806F18BF2D20E7E751463020019BB3
:103BA400013598470028CDDAE4E6013E5146019BF1
:103BB40018F8060098470028CADADBE651462020A8
:103BC400019B013598470028FFF6D4AEA9EB050305
:103BD400002BF3DCD9E500BF7047002070470FB419
:103BE40007B504A951F8040B0191FCF731FC03B0AB
:103BF4005DF804EB04B07047836800EBC101B3F5D2
:103C0400004F2CBF51F8220031F81200704700EB2E
:103C1400C1018068B0F5004F2CBF41F8223021F873
:103C240012307047012208B5FFF7E6FFD04008BD07
:103C3400836800EBC101B3F5004F08D34B681AB198
:103C440043F001034B60704723F00103FAE74B880C
:103C54001AB143F001034B80704723F00103FAE7E4
:103C640053000122FFF7D3BFB0F5004F34BF042344
:103C74000823481C0833A0EBD300B0FA80F0C0F14D
:103C84001F0070472DE9F0410D4686680446FFF792
:103C9400C9FFB6F5004F014601D3012832D03046A2
:103CA400FFF7E2FF04EB80010E6996B90122E36895
:103CB40082401343E36002220D612B4629462046CD
:103CC400FFF7A5FF032229462046BDE8F041FFF790
:103CD4009EBF022231462046FFF78EFF0746034669
:103CE40029462046FFF793FF032233462946204600
:103CF400FFF78DFF39462B462046FFF788FF022247
:103D04003146E1E7BDE8F081B2F5802F2CBF0823EE
:103D140004232DE9F0410026D21A8C18CD1D25F07C
:103D2400070524F00704641BE408056021462046C7
:103D3400AC60EE60FFF798FF421D9200013002F183
:103D440007074FEAD7073146A2F1100205F1100028
:103D5400B8BF324600F06CFD3A4631462846FFF7BC
:103D64007FFF3346324631462846FFF750FFA4EB27
:103D74000708284631460122FFF75AFF42463946D2
:103D8400FFF76EFF3B46324639462846FFF73FFFB2
:103D940021462846FFF764FF43463246214628461B
:103DA400FFF735FF214628460122FFF741FF394638
:103DB400BDE8F041FFF766BF038B13F0070305D19D
:103DC4000368002B0CBF002003207047022B05D191
:103DD400408BB0FA80F0400980007047012B05D178
:103DE4000368002B0CBF002005207047002070479B
:103DF40010B50C4600B111B96FF0150010BD081DC7
:103E040000F095F80028F9D1A368032BF6D9F3E75D
:103E14002DE9F0410D4607461946281D90461E46D9
:103E240000F096F8044638B13346424629463846EF
:103E3400A446BDE8F0416047BDE8F08110B44FF0FE
:103E44002004EFF3118284F31288BFF36F8F416172
:103E540010BC0121FCF72EBB38B50C46054658B101
:103E640051B10B6843B14B6833B11C22002100F0FF
:103E7400DFFC00202C6138BD6FF01500FBE770B546
:103E840005460E46FFF7B4FF041E15DB4FF0200372
:103E9400EFF3118283F31288BFF36F8F4FF6FF7134
:103EA4006B8B2C8B8B4204F0070407D182F31188AF
:103EB400BFF36F8F6FF00A04204670BD022C0CD143
:103EC40001336B8382F31188BFF36F8F0023224683
:103ED40031462846FFF79CFFEEE7062C14D8DFE8AE
:103EE40004F004131313041A0400002333606B68F2
:103EF4003BB9C5E90066ACB902212846FCF7DAFAF9
:103F0400DAE71E606E60F6E782F31188BFF36F8F05
:103F14006FF00404D0E782F31188BFF36F8F6FF062
:103F24008504C9E782F31188BFF36F8FC4E70346A2
:103F340058B1426802F00302012A03D0032A04D1D3
:103F4400026812B10020986070476FF01500704746
:103F54004268034602F00302032A4FF00002816024
:103F640014BF104600685A6070477047FEF788BD5A
:103F740001460068FEF784BD00210120FFF7F6BF6B
:103F840008B5FCF773FCBDE80840FCF76DBD036E93
:103F940083F30B88704740E800F313F4803FD8B2F2
:103FA40008BF6FF0150070477FB50A894E890B680A
:103FB4004D6802F01F0242EA461200938DF8082071
:103FC40023F01F036A1E134423F01F0307280393DF
:103FD40004D86946FCF7F4FE04B070BD6FF0150018
:103FE400FAE708B5FDF74EF8002008BD0C22036976
:103FF400C9B201FB0233986F00F0070070474FF01D
:104004002003EFF3118283F31288BFF36F8F0368E9
:1040140003F0C00343F00203036082F31188BFF38B
:104024006F8F704770B5C9B203694FF02004EFF386
:10403400118584F31288BFF36F8F0C2606FB0134BD
:10404400A46F14F0C00408D0A24206D085F31188EE
:10405400BFF36F8F4FF0FF3070BD012206FB0133B9
:104064009A6785F31188BFF36F8F436803EBC1032D
:104074005B6898470020EFE78022FFF7D3BFF8B5CD
:10408400069F0469C9B24FF02005EFF3118685F34A
:104094001288BFF36F8F0C2505FB0144A56F05F053
:1040A400070CBCF1010F0CD1A76786F31188BFF38D
:1040B4006F8FC4E91C23436853F8313098470020BC
:1040C400F8BD05F0C005AF4286F31188BFF36F8FCA
:1040D4000CBF6FF077004FF0FF30F1E713B5802489
:1040E4000094FFF7CCFF02B010BD10B41C2400698B
:1040F400CBB203FB0400002110BC1047032000F0E6
:10410400BBB9022000F0B8B9002000F0B5B9032013
:1041140000F011BA022000F00EBA002000F00BBA31
:104124001046FEF759BE436800205B681B690B60AC
:104134007047436802EA01005B6821EA0201986063
:104144000020D9607047436800205B68996070471D
:10415400436800205B68D960704743685A685368B5
:1041640021EA03000B4090600020D360704710B533
:1041740003695868F8B1884219D19C680868A1425B
:10418400586000D19860002008602AB15A680A601B
:104194009A68596002B99960002010E0814206D102
:1041A4000868206098688142EDD19C60EBE7044682
:1041B40000680028F2D1002AE8D16FF0150010BD84
:1041C40030B543681360057A446804EBC504A34220
:1041D40002D36FF0010030BD5C798C4201D008330A
:1041E400F0E70020F7E70B460269D2E9010183E812
:1041F40003000020704743681B68D3F88004C3F8A9
:1042040080047047436802691B68D3F8100150B1F9
:104214000020526912780A70C3F81001D3F81021F3
:1042240001221A6070474FF0FF307047026803465E
:10423400D2F8580140B95B689B0706D4D2F8200134
:10424400003818BF01207047012070474268136886
:10425400D3F80413C90518D5D3F82011A9B14FF028
:104264002000EFF3118180F31288BFF36F8FD3F82E
:10427400200130B10020C3F82001D3F8200101202F
:10428400D86081F31188BFF36F8F5268D20615D5B9
:104294004FF02001EFF3118281F31288BFF36F8F87
:1042A400D3F8581111B10021C3F800154FF480015F
:1042B400C3F8081382F31188BFF36F8F704700228D
:1042C40000F150039B009BB203F1502303F58033AC
:1042D4001A601B68704708B5FDF7C4FC08BD0047A9
:1042E40000F083B940F00040C1F88000C2F88000BB
:1042F400704773B503285DD8DFE800F00218263450
:104304004FF050230222C3F808230022C3F80421EB
:10431400D3F804210122DA60002401238DF8073048
:10432400032847D8DFE800F02C4865824FF050237B
:1043340001220021C3F80823C3F80011D3F80011A7
:104344000DF107045A60E8E74FF050234FF4007270
:10435400C3F808230022C3F82421D3F8242101221E
:104364005A62D9E74FF050234FF48072C3F8082300
:104374000022C3F82021D3F820210122DA61CBE7FF
:1043840042F210754FF05026D6F8183403F48033F7
:1043940034B97BB10120FFF7A3FF013DF4D109E05B
:1043A400D6F8182402F0030222701BB19DF807000E
:1043B4000128F0D002B070BD42F210754FF05026C3
:1043C400D6F80C3403F480333CB9002BF2D001202E
:1043D400FFF786FF013DF3D1ECE7D6F80C2402F099
:1043E40001022270002BE5D09DF807000128EFD0D0
:1043F400E0E742F210754FF05026D6F85C3403F42F
:1044040080333CB9002BD5D00120FFF769FF013D73
:10441400F3D1CFE7D6F85C2402F001022270002B1E
:10442400C8D09DF807000128EFD0C3E742F2107509
:104434004FF05026D6F85434DB03BBD52CB90120F9
:10444400FFF74EFF013DF5D1B4E79DF807000128C1
:10445400F6D0AFE708B50520FCF7E4F910B905205C
:10446400FCF7D2F94FF050230122C3F81825C3F802
:104474001425C3F8802508BD08B5032832D8DFE821
:1044840000F002323E4C4FF05022D2F81814D2F809
:104494001834C90318D503F00303022B05D0012BEC
:1044A40002D00020FFF725FF01234FF05022C2F86D
:1044B40018350023C2F80431D2F804310223C2F8BB
:1044C4000433012393600DE0D2F81434DB07EBD5F9
:1044D400D2F81C3403F00303013B012BE1D802237F
:1044E400C2F8043308BD4FF050230022C3F8002162
:1044F400D3F800210122C3F804231A60F2E74FF035
:1045040050230022C3F82421D3F824214FF400724D
:10451400C3F8042301221A62E4E74FF05023002277
:10452400C3F82021D3F820214FF48072C3F8042368
:1045340001229A61D6E7FFF7DCBEF7B51646DDE93E
:104544000847019001A81D46FDF7D0FE019BB6F176
:10455400000C18BF4FF0010C00EB83000B1E18BFBA
:104564000123002D43EA4C0314BF4FF00C0C4FF011
:10457400000C002C43EA0C0314BF4FF4706C4FF092
:10458400000C002F43EA0C0314BF4FF4403C4FF0DF
:10459400000CD0F8002243EA0C0322EA030301B121
:1045A40009780EB13678760019430DB12D78AD0037
:1045B40031430CB12478240229430FB13F783F04DE
:1045C4000C433C43C0F8004203B0F0BD1FB50DF1ED
:1045D4000F03019300238DF80F101A461946009318
:1045E400FFF7ABFF05B05DF804FB08B1FCF7CCB8EE
:1045F4007047704740B1C368587810F001001EBF7F
:104604001878B0FA80F0400970474FF02002EFF3B9
:10461400118382F31288BFF36F8FFEE708B5FFF7AB
:10462400F4FF00F005B900F0F6B8EFF305800038A8
:1046340018BF0120704708B54FF02002EFF3118333
:1046440082F31288BFF36F8FFCF7B8F8F4E7D0E970
:10465400003213605A600023C0E90033704708B584
:10466400FFF7F5FF437B23F00203437300238360CA
:1046740008BD38B504460D46FEF7DCFC637B43F009
:1046840002036373E5B1A5602B689D4209D16B6891
:10469400C4E900531C606C6012E06A689342F6D06F
:1046A4001B68002BF3D094F90E2093F90E108A4264
:1046B400F3D09142F1DD5A68C4E9003214605C60C1
:1046C40038BD10B54FF02003EFF3118483F3128843
:1046D400BFF36F8FFEF77AFC84F31188BFF36F8FFB
:1046E40010BD38B504464FF02003EFF3118583F372
:1046F4001288BFF36F8F437B13F0280F0BD18368AD
:104704000BB1FFF7ACFF637B51B903F0FB03204609
:104714006373FEF75BFC85F31188BFF36F8F38BDBD
:1047240003F0EB03F3E701211838FFF7DABF38B5DC
:104734004FF02003EFF3118583F31288BFF36F8FDB
:104744000468A0420DD034B12046FFF788FF04F17D
:10475400180000F01EF885F31188BFF36F8F204610
:1047640038BD0024F7E7034620B9EFF305820AB900
:10477400FCF7A4B883F31188BFF36F8F70474FF031
:104784002003EFF3118083F31288BFF36F8FFFF7D9
:10479400EABF10B54FF02002EFF3118482F31288C0
:1047A400BFF36F8F03683BB1FEF7A2FE002084F3D2
:1047B4001188BFF36F8F10BD6FF01500F7E708B5D0
:1047C400FEF792FF08BD0246014410B58A42134623
:1047D40003D01C780132002CF8D1181A10BD9305AF
:1047E40070B548BF22F40072044608464CBF072146
:1047F40027212646B4FBF2F502FB15432C46DBB217
:10480400092B84BF5B18DBB2B24203F1300300F81A
:10481400013BEED970BD0A44431E914200D170475A
:1048240010B511F8014B914203F8014FF9D110BDB5
:1048340002440346934200D1704703F8011BF9E791
:0C48440001480068704700001C020020C2
:0848500038B9FF7F01000000F0
:10485800F10600000000000049110000984800001F
:104868000D150000C04800000D150000AC48000000
:10487800E1190000D4480000D9130000000000002E
:10488800D11D000000000000B11000000000000071
:10489800E24C0000AC4B0000CC4B0000BC000020F8
:1048A8004C020020FB4C0000E84B0000084C0000C4
:1048B800BE000020F0020020074D0000F84B000069
:1048C800084C0000C0000020FC020020134D00002E
:1048D8002C4C0000604C0000C20000201400002096
:1048E800000000007D3F0000000000007D3F000048
:1048F800000000007D3F0000000000007D3F000038
:10490800000000007D3F000035220000E342000067
:10491800000000007D3F0000000000007D3F000017
:10492800D448000051420000000000007D3F000014
:10493800000000007D3F0000000000007D3F0000F7
:10494800000000007D3F0000E9280000E34200006D
:10495800000000007D3F0000000000007D3F0000D7
:10496800000000007D3F0000000000007D3F0000C7
:10497800000000007D3F0000000000007D3F0000B7
:10498800000000007D3F000000000000611E0000E4
:10499800000000007D3F0000000000007D3F000097
:1049A800000000007D3F0000000000007D3F000087
:1049B800000000007D3F0000000000007D3F000077
:1049C800000000007D3F0000000000007D3F000067
:1049D800000000007D3F0000000000007D3F000057
:1049E800000000007D3F0000000000007D3F000047
:1049F800000000007D3F0000000000007D3F000037
:104A0800000000007D3F0000000000007D3F000026
:104A1800000000007D3F0000000000007D3F000016
:104A2800000000007D3F0000000000007D3F000006
:104A3800000000007D3F0000000000007D3F0000F6
:104A4800000000007D3F0000000000007D3F0000E6
:104A5800000000007D3F0000000000007D3F0000D6
:104A6800000000007D3F0000000000007D3F0000C6
:104A7800000000007D3F0000000000007D3F0000B6
:104A8800000000007D3F0000000000007D3F0000A6
:104A9800000000007D3F0000000000007D3F000096
:104AA800000000007D3F0000000000007D3F000086
:104AB800000000007D3F0000000000007D3F000076
:104AC800000000007D3F0000000000007D3F000066
:104AD800000000007D3F0000000000007D3F000056
:104AE800000000007D3F0000000000007D3F000046
:104AF800000000007D3F0000000000007D3F000036
:084B0800000000007D3F0000E9
:104B1000394D000000000000444D0000000000007E
:104B2000604D000000000000BA4C000000000000D2
:104B3000ED4C000000000000CF4C00000000000021
:104B4000714D000000000000CB4C00000000000090
:084B50001D4D000000000000F3
:084B5800FFFFFFFFFFFFFFFF5D
:104B60000338FDD87047000000000020000000005E
:104B7000060001000400002002000000804B00003D
:104B800000000000D34C000006000000E0FF0F0012
:104B900000000020DB4C000021000000E0FF0620A8
:104BA00005110000D51000000000000011120000E7
:104BB000A91200000D4100001F4100000741000044
:104BC000194100000141000013410000751200006E
:104BD0007D400000E140000000000000F13F0000C7
:104BE0000000000000000000FFFF000000288450CB
:104BF0000000000001000000FFFFFFFF00258450BF
:104C00000000000000000000911500002B41000092
:104C1000374100004B410000554100005F4100005A
:104C200029140000734100000000000000800050C3
:104C300002000000000000003C4C0000008000501A
:104C4000484C000001000000504C0000040000002F
:104C500014000000130002009601010095010300FA
:104C600009420000C91A0000FB410000651800005D
:104C7000EB410000F5FFFFFF5848000058480000D6
:104C800088480000904800009848000098480000BC
:104C90006E726635333430646B5F6E7266353334F2
:104CA000305F6370756170700048656C6C6F205781
:104CB0006F726C64212025730A0063627072696EE2
:104CC00074665F7061636B61676500736F63006D2D
:104CD000707500464C4153485F30005352414D5F60
:104CE0003000636C6F636B403530303000636C6F45
:104CF000636B5F636F6E74726F6C006770696F4097
:104D0000383432383030006770696F4038343235AB
:104D10003030007561727440383030300075617227
:104D2000745F6E7266785F75617274650000000072
:104D30000101010000010000004E5246585F434C43
:104D40004F434B004E5246585F445050490000209C
:104D500030303030303030303030303030300001B2
:104D60004E5246585F4750494F5445006D61696E39
:104D7000006F73002A2A2A20426F6F74696E6720C1
:104D80005A6570687972204F53206275696C64208F
:104D90007A65706879722D76332E342E302D333348
:104DA00031362D67383361663733343966333462D0
:104DB000202A2A2A0A00286E756C6C29002A666C43
:084DC0006F61742A000000007D
:104DC800DF3B000000000000E73F0000000000009B
:104DD800000000000000000000C201000001030004
:104DE80000000000540300205303002000000000CE
:104DF8000090D003FFFFFFFF00000000000000004C
:104E0800000000000000000000000000000000009A
:104E1800000000000000000000000000000000008A
:104E2800000000000000000000000000000000007A
:104E3800000000000000000000000000000000006A
:104E4800000000000000000000000000000000005A
:104E5800000000000000000000000000000000004A
:104E68000000000000000000FF000000000000003B
:0C4E780000000000B4000020B400002086
:084E8400000000000000000026
:044E8C0015E015E038
:0400000300000D31BB
:00000001FF
