:020000040800F2
:10000000401100247D090008412900085109000819
:1000100051090008510900085109000800000000BA
:10002000000000000000000000000000690500085A
:1000300051090008000000000505000861160008CD
:100040001906000819060008190600081906000814
:100050001906000819060008190600081906000804
:1000600019060008190600081906000819060008F4
:1000700019060008190600081906000819060008E4
:100298000349044808B501F0F7FF002008BD00BF76
:1002A8008E3900089C390008014B1B68184700BFAD
:1002B80000000024014B1860704700BF00000024B4
:1002C80030B585B004460D4610220021684602F07C
:1002D800EAFE02232A4621468DF802306846034B7F
:1002E800019301F0E3FF05B030BD00BFB102000883
:1002F80080B505460E461746984601F00BFEDFF816
:100308002090034602F0D8FE0446424649F80030E1
:1003180039463046A84754F8090000F041FB00BFB1
:1003280008000000324B70B55A6912F4003211D13E
:10033800BFF34F8FBFF36F8FC3F85022BFF34F8FB8
:10034800BFF36F8F5A6942F400325A61BFF34F8F7F
:10035800BFF36F8F264A5369D90327D4536913F41F
:10036800803323D1C2F88430BFF34F8FD2F8803066
:1003780043F6E074C3F3C900C3F34E335B0103EAE9
:100388000406014646EA81750139C2F86052F9D27D
:10039800203B13F1200FF2D1BFF34F8F536943F481
:1003A80080335361BFF34F8FBFF36F8F114B124AE6
:1003B8001A60124BDA6822F0070242F00202DA6091
:1003C8009A6942F440429A619A699204FCD50C4BAE
:1003D8001A6841F20303B3EB124F06D1094AD2F867
:1003E800083143F00103C2F80831002070BD00BF96
:1003F80000ED00E0400000240090D00300480258BF
:100408000010005C00800051014910220A6070470A
:1004180010ED00E072B6404080F31188BFF36F8F93
:10042800BFF34F8F30BF62B6BFF36F8F704700BF07
:1004380000B2002807DB0123410900F01F00024A2F
:10044800834042F82130704700E100E000B20131FA
:1004580000284FEA0111C9B206DB00F1604000F53F
:10046800614080F80013704700F00F00014B1954E9
:10047800704700BF14ED00E030BFFFF7FDBF00BFBD
:100488000F4A08B522F07F020E4B9A60BFF34F8FD8
:10049800BFF36F8FD3F8882022F47002C3F8882046
:1004A800EFF3148323F0040383F31488BFF36F8FEF
:1004B80001F068FA01F094FD00F050FA01F0BEFA7C
:1004C8000000000800ED00E0094A0A49936809683D
:1004D8005867996708494B6843F080534B6000237D
:1004E80083F31188BFF36F8F9368986F704700BFCD
:1004F800100300246C39000800ED00E015498A68F3
:100508004FF030001044EFF3098C80E8F01F102002
:1005180080F31288BFF36F8F0F4F4FF000664A6960
:100528008A603E604FF07004141920680B4C2060FC
:10053800506F0023536780F3118804B5104600F00C
:1005480051FABDE8044002F1300090E8F01F8CF346
:10055800098870471003002404ED00E0C00100245E
:100568001EF0040F0CBFEFF30880EFF309808169D8
:1005780011F8021C0229FFD001B502F0D5F901BD1E
:1005880042F8203C203A009B07495360019B21F028
:1005980001019360029B9161D3604FF08073D36136
:1005A8000023026543677047F9020008094A0346B9
:1005B800906870B113F1160F006E05D0A0F14002DB
:1005C8009A4205D8834203D2814228BF002070474F
:1005D800002070471003002414460B4A0D4608B546
:1005E8000A4B9060026F1A6000F0FCF9204685F310
:1005F8000988002163B681F31188BFF36F8F002249
:100608000023FFF775FE00BF10030024C00100247B
:1006180001B5EFF30580A0F110004FEAC0000449CE
:10062800014409C99847BDE801400249084700004C
:10063800983200089D060008114B124A2DE9F04136
:10064800D518DFF844800746013DB5FBF3F55D4357
:100658000E4B08EB0304013CB4FBF3F403FB045416
:100668000E1B0B49304602F010FD7019083E424639
:10067800002102F018FD04F108003E67BDE8F08192
:100688000100000000000000040000000400000059
:1006980068370008044B99685869884203D00349B1
:1006A8004FF080520A6070471003002404ED00E008
:1006B800264B70B515469A6A064612F0100F9A6ACC
:1006C80014BF1124102412F0080F9A6A18BF1224BC
:1006D80092070AD5586B9A6A140634D519B19A6AE2
:1006E80022F080029A62132401E06FF01500174B84
:1006F8009A6A12F0010F9A6A18BF142412F0200F98
:100708009A6A18BF1524D20602D49B6A9B070AD599
:100718000E4B5B68190506D53146FFF747FF10B148
:1007280080F309880224094B9A6A920603D55A6A0B
:1007380022F400525A629A6A204642F0FF029A62F4
:1007480000232B7070BD6FF01500CCE700ED00E0C2
:10075800134B9A6A12F0007F9A6A14BF1E201D205C
:1007680012F0807F9A6A18BF1F2012F4002F9A6A2D
:1007780018BF212012F4802F9A6A18BF222012F481
:10078800003F9A6A18BF232012F4803F9A6A6FEAE2
:10079800024218BF24206FEA12429A62704700BFD3
:1007A80000ED00E0194B024610B5986A9C6A10F4F7
:1007B800805F14BF1720162014F4006F9C6A18BFBE
:1007C8001820A40509D5986B986A000404D51AB1B5
:1007D8009A6A22F400429A6219200C4B9A6A12F41F
:1007E800806F9A6A18BF1A20D2050CD49B6A13F43A
:1007F800005F18BF1C20054A936A43F47F43936245
:1008080000230B7010BD1B20F5E700BF00ED00E0D2
:10081800484BF0B55B688BB004460025C3F308036A
:1008280085F31188BFF36F8F02F07F40B0F17F4FDF
:1008380011D102F00C0008280DD010074CBF0C464F
:1008480001250022033B8DF80720032B05D8DFE89C
:1008580003F0256468612C46F3E700239DF8072020
:10086800D2B902AE04F120072068083454F8041CF9
:100878003246BC4203C21646F6D1099A002D54D01E
:10088800C2F3080121B96FEA52226FEA42220992A3
:1008980002A9184602F046F80BB0F0BD254BDA6AFB
:1008A8009107DAD4DA6A002AD7DBDA6A5200D4D59B
:1008B8005A69A16942F480725A61BFF34F8FBFF33E
:1008C8006F8F5A6931F8021C22F480725A61BFF3A3
:1008D8004F8FBFF36F8F4DF6027291420AD09A6A1A
:1008E800D2B24AB10DF1070201212046FFF7E0FE1E
:1008F8000346B3E72368B1E79A6A12F47F4F05D03D
:100908000DF107010120FFF74DFFF1E79B6AB3F5F1
:10091800803FA2D3FFF71CFFEAE70DF10702002191
:10092800E3E70DF107010020EDE722F4FF7222F062
:100938000102ACE700ED00E0024A536943F01003FE
:100948005361704700ED00E0EFF30880EFF3098191
:1009580001B57246FFF75CFF01BD00BF00230448E4
:100968001021C2180133962B82F80013F9D1704771
:1009780000E100E0102080F3118808484FF404617A
:10098800401880F30988EFF314800221084380F3AC
:100998001488BFF36F8FFFF773FD000080030024F6
:1009A800084B9B6883420BD1EFF3058343B1064B99
:1009B8005A6842F080525A605A6A22F400425A62D7
:1009C80001F0AEBA1003002400ED00E0024B012153
:1009D800024A034800F070B8000008240000002410
:1009E800C0370008026E4021044B403A18461A608E
:1009F800034AC3E90112012100F068B8C4010024C8
:100A080000000B15F0B500251F4E8D4239DA4468F9
:100A180074B353B104F1FF3C14EA0C0F2FD11F2C0F
:100A28002DD907681CEA070F29D1202C5FFA82FE0E
:100A38000768D0F808C01ED9B4F1004F1DD8013C92
:100A4800B4FA84F4C4F11F046400BEF10F0F4CEA39
:100A5800040C14D827F01F04C6F898201443013258
:100A680044F01004C6F89C404CF00104C6F8A040BD
:100A780001350C30C9E70824E7E73E24E5E76FF0C5
:100A880015021046F0BD00BF00ED00E0044B052242
:100A9800C3F89420BFF34F8FBFF36F8F704700BF29
:100AA80000ED00E0BFF35F8F024B0022C3F89420F3
:100AB800704700BF00ED00E010B5034C0123227819
:100AC800FFF7A0FF207010BD40030024094A08B5B5
:100AD80000231278FFF796FF10F1160F02D0064A8E
:100AE8000F2800DD08BDC2F898000130C2F8A03018
:100AF800F6E700BF4003002400ED00E01449086851
:100B0800102810B521D8FFF7CDFF124C49680022F4
:100B1800904201F10C0105D10F4B18700020FFF72E
:100B2800B5FF10BDC4F8982051F80C3C23F01F0302
:100B38001343013243F01003C4F89C3051F8043CCD
:100B480043F00103C4F8A030E2E74FF0FF30E8E7D4
:100B58007037000800ED00E04003002408B5024BA0
:100B68001B689847002008BDD0010024034B044AA5
:100B78001860937843F0020393707047D001002403
:100B8800040000240649074821F00701C1F110526A
:100B980008B502F5002201F06AFE002008BD00BF7A
:100BA80093110024801100242DE9F041054600240A
:100BB8004FF001084FF0B0460E4F2B7853FA84F0EF
:100BC8001F280FDC08FA00F3D6F8882033EA02025F
:100BD80008D1C6F8883057F830301BB107EBC0028F
:100BE8005168984701346A78E3B29A42E5D2BDE881
:100BF800F08100BFD4010024044B03EB4000002324
:100C0800013320F8022B9942FADC70474C0000248B
:100C1800084B02464FF0B04110B433F910000123DD
:100C2800D1F8804093402343C1F8803010BCFFF7CF
:100C3800FFBB00BF4C0000240A4B30B553F83040CE
:100C48008C4204D103EBC0056D68954205D034B9D8
:100C580043F8301003EBC0035A60002030BD6FF03A
:100C68000F00FBE7D4010024034B002243F8302097
:100C780003EBC0035A607047D4010024044B0548B5
:100C88009B6A03F00303022B18BF0020704700BFC4
:100C98000044025800127A0010B50A68102A23D8B6
:100CA800134BD340DB071FD54A68D3B2C2F3423493
:100CB800C2F3042203F1B04304FA02F203F511333C
:100CC800186820EA02021A604968CBB2C1F30242EE
:100CD800C1F3042103F1B0438A4003F511331868C6
:100CE800024300201A6010BD6FF08500FBE700BFCB
:100CF8000E34010008B5084B1A6902F03802102AB0
:100D080006D0182A06D1FFF7B9FF5043400808BD9E
:100D18000248FCE70020FAE70044025800127A0073
:100D28002B4B10B5186814460B68102B2CD813B928
:100D38006FF0850035E0013B0F2BF9D801A252F87E
:100D480023F000BFBD0D0008C90D0008BD0D000847
:100D5800390D0008390D0008390D0008390D000853
:100D6800390D0008390D00088D0D0008D50D000853
:100D7800B30D0008B90D0008390D0008390D000839
:100D8800AD0D000813480AE0D42B08D0D83B1C2B23
:100D9800CED84FF0113222FA03F3DB07C8D5206012
:100DA800002010BDFFF7A6FFF9E74FF4FA40F6E779
:100DB8000948F4E7FFF762FF182358434008EEE7B5
:100DC800FFF75CFF182358438008E8E70020E6E7B0
:100DD8004000002400127A00006CDC02714B13B54D
:100DE800D3F8E02042F00072C3F8E020D3F8E02006
:100DF80002F000720192019A1A6842F480221A6085
:100E08001A6842F480321A601A689403FCD55A6F43
:100E180042F001025A67634B5A6F9007FCD51A6873
:100E280042F480521A601A689104FCD51A6902F0DB
:100E38003802182A17D11A68520707D41A6842F0DC
:100E480001021A60574A13685C07FCD5554B1A69AA
:100E580022F007021A611A6912F0380FFBD19A6959
:100E680022F00F029A614F4B1A6822F080721A60C2
:100E78009A6A22F0030242F002029A629A6A22F403
:100E88007C7242F010029A62DA6A22F00C0242F096
:100E98000802DA62DA6A22F00202DA621A6B22F4D3
:100EA800FF7222F0010242F017021A63DA6A22F096
:100EB8000102DA621A6B22F47E4242F400721A636B
:100EC800DA6A42F48032DA621A6B22F4FE0242F4E1
:100ED80040321A63DA6A42F40032DA621A6B22F09C
:100EE800FE4242F080721A63DA6A42F48022DA62C1
:100EF8001A6842F080721A601A689001FCD52A4B71
:100F0800DA6822F0070242F00202DA609A6942F4D3
:100F180040429A619A699104FCD5FFF7EBFE0446BA
:100F28002248844201D200F059FC1E4B9A6922F4EF
:100F380070629A619A6922F00F029A61DA6922F066
:100F48007002DA61DA6922F4E062DA619A6922F001
:100F580070029A611A6A22F070021A621A6922F003
:100F6800070242F003021A611A6902F03802182ACD
:100F7800FAD10E48844201D300F030FC0A4BDA68FB
:100F880022F0070242F00202DA609A6942F4404213
:100F98009A619A699204FCD5054B0020034A1A60AD
:100FA80002B010BD004402580048025800D8B805E5
:100FB8004000002408B5074801F0A4FF38B10648EE
:100FC800FFF7D4FD0448FFF775F9002008BD6FF05E
:100FD8001200FBE784320008E50F00080A2838B53C
:100FE8000446074D04D1AB680D2128465B68984735
:100FF800AB68E1B202485B689847204638BD00BF3D
:101008008432000838B5036904465860084D2846FC
:1010180001F078FF40B161682846AB680C311B6865
:10102800984700EAE07038BD6FF01200FBE700BF98
:101038006C310008F7B517460C461D464668B7F5EB
:10104800001F026928D101F003030F2204339B001B
:101058009A4042EA9102374902F00303023351F8F9
:101068002310130C93FAA3F3B3FA83F301EA1242A1
:1010780003F01F0322FA03F3B2689A4209D120460B
:1010880001F0AFFC2046FFF7EFFD0021204601F0FC
:10109800B5FC002003B0F0BDB7F5800F44D0264959
:1010A8002046FFF7C9FD002841D1244A6B46B6689F
:1010B80092E8030083E80300214819468268126811
:1010C8009047D8B904F003030F2104339B009940DB
:1010D80041EA940101F003030A0C92FAA2F29B0080
:1010E800B2FA82F203F1B04302F01F02D3F8080407
:1010F800964020EA11410E43C3F80864B5F1806FA9
:101108000ED0B5F1C06F0DD005F17E43594259415B
:101118004900204601F072FC2046FFF779FDB8E748
:101128000121F6E70321F4E76FF08500B2E76FF0DD
:101138000F00AFE7000400585F2C0008683700086C
:101148006C3100082DE9F047044600EBC106002584
:101158001C4FB44201D1002014E02068C30600F0FF
:101168001F0911D4656845F02005C0F3471AC0F37C
:1011780043200A2823D857F82080B8F1000F0DD152
:101188006FF01200BDE8F087B9F1100F04D0B9F183
:10119800110FEAD16568E8E73025E6E7404601F037
:1011A800B1FE0028ECD04B462A460AF00F01404613
:1011B80001F068FD002804F10804CADAE2E76FF0DC
:1011C8001500DFE7D0380008F8B50C460369416818
:1011D8005D682379012B15D09F1E7E427E41B602A1
:1011E8006279022A96BF444F4FF4005737F81270BD
:1011F800A279022A09D0042A2FD0003B18BF012364
:101208001B0306E04FF4C066EAE7B3FA83F35B0911
:101218001B07E2790968012A14BF4FF0000C4FF44C
:10122800407CA5421CD10A6822F0805222F4B052B8
:1012380032431A430A604B6823F440533B434B60E4
:1012480043681A68936823F4407343EA0C03936075
:101258002968BDE8F84001F0BFBD4FF48053D8E7D6
:10126800D1F800E00EF4C06E764506D0D1F800E063
:101278002EF4C06E4EEA06060E6041680E6871686C
:1012880001F440518F4204D0716821F44051394330
:10129800716041680E68316801F010218B4204D0FA
:1012A800316821F010210B433360436819688B685B
:1012B80003F440739C4505D08B6823F4407343EADC
:1012C8000C038B6043681B689968490405D5032A99
:1012D80009D09A6822F4804204E0032A03D19A686C
:1012E80042F480429A6021682B68994203D001F049
:1012F80073FD23682B60F8BD8839000873B505466F
:10130800446806695748306001F0FCFD18B96FF071
:10131800120002B070BD3068E16883681B689847A6
:101328000028F6DB01AA0021E06901F0C3FC0028CF
:10133800EFDB019B002219791868FFF703FF0028EB
:10134800E7DB6C682B6922685E68136823F0010389
:101358001360606801F0D6FD0028D8D0D4E90101F7
:101368008368DB6803B19847226852E8003F43F07E
:101378000C0342E800310029F7D131462846FFF72F
:1013880023FF237D23B12268936843F00803936009
:10139800637D23B12268536843F400435360A37DFF
:1013A80023B12268536843F480335360E37D23B14B
:1013B8002268536843F400335360227E2368002A6E
:1013C8003ED0294A93421ED0A2F54C4293421AD0ED
:1013D80002F58062934216D002F58062934212D0E1
:1013E80002F5806293420ED002F5444293420AD03D
:1013F800A2F51C42934206D002F58062934202D0C5
:101408001A4A93422AD16B681A68936843F4804356
:1014180093602268617E136823F0787343EA41532E
:1014280013602268A17E136823F4F81343EA01438A
:101438001360E37E23B12268936843F4004393600A
:101448002268136843F0010313602368DA69910284
:10145800FCD5DA695202FCD500205AE76FF0150076
:1014680057E700BF6C31000800100140000C00581D
:10147800F8B50246036946680C4608795D68012894
:1014880091F805E08B7921D1BEF1020F7BD9022BAF
:101498001F464FF4C0614FF4005C00F08D80042BB0
:1014A80000F0848028B1C31E012B40F282804FF4E3
:1014B8008050BCF5805F00F08980BCF5405F00F08B
:1014C8008780BCF1000F1CD101231BE002280AD140
:1014D800BEF1020F63D9022B1F464FF480610BD077
:1014E8004FF4005CDBE7BEF1020F5BD9022B1F460D
:1014F8005AD1002866D00021C31E012B59D90020DB
:1015080002270323734554D101F020FCB84250D17F
:10151800E37923B3012B5DD1336830498B421ED068
:10152800A1F54C418B421AD001F580618B4216D04F
:1015380001F580618B4212D001F580618B420ED09B
:1015480001F544418B420AD0A1F51C418B4206D0DB
:1015580001F580618B4202D021498B4229D1316843
:1015680010460B6823F001030B602146FFF72CFEA1
:101578003268136843F00103136094E8030085E8B8
:1015880003000020F8BD4FF4C061164F022B37F856
:101598001EC01F4683D178B94FF0805089E74FF4B9
:1015A8008061F2E70021F0E7002199E700283FF485
:1015B8007EAF6FF08500E5E7C31E012BF9D902273E
:1015C800002076E701464FF080509AE7002399E71C
:1015D800022397E7032B9FD0EBE700BF00100140E1
:1015E800000C0058883900084FF0E02310B59A69BC
:1015F8001969986911F4803F084B094901D1824261
:1016080006D21A680C6822441A604FF0E022126968
:101618001B680A681344181A10BD00BF040300248D
:1016280008030024094B1022002083F8232042F2EB
:101638007F52074B1A60074B18604FF0E0235A613E
:1016480098611A6942F007021A61704700ED00E0DC
:10165800080300240403002410B5FFF7C5FF104950
:10166800104B0868D3E90042001942F10002C3E9AF
:1016780000020D4A00230B604FF41653D2E90041D3
:10168800001BB0FBF3F043431B1941F10001C2E911
:10169800003100F087FDBDE81040FEF7FBBF00BF3A
:1016A8000403002498000024900000242DE9F04150
:1016B800364F00295ED0421C0AD14FF0E022136950
:1016C80023F0010313614FF07F433B60BDE8F081D5
:1016D8003E68012854DD40F2D268404501DC00F143
:1016E800FF384FF01003EFF3118583F31288BFF32F
:1016F8006F8FFFF779FF4FF0E02325499A69D1E909
:10170800004300194FF0000443F10003C1E900034E
:10171800204B1C60204B1B68C41A34D44FF4165C51
:10172800181A0CFB084404F515543F34B4FBFCF4B8
:101738000CFB0400B0F5806F25D9184B984228BFE0
:10174800184638604FF0E02301389C695861002042
:10175800A2429861A2EB0403D1E9000238BF9B19A9
:101768001B1842F10002C1E9003285F31188BFF36A
:101778006F8FABE7431C3E68ABD140F2D260AEE757
:101788004FF00008ADE74FF48060DAE70803002463
:1017980098000024040300249000002400C3FF00E4
:1017A80038B54FF01003EFF3118583F31288BFF3B8
:1017B8006F8F084B1C68084B1B68E41AFFF714FF6F
:1017C80085F31188BFF36F8F4FF416532044B0FB95
:1017D800F3F038BD9800002490000024002854D06D
:1017E8002B4A936903F44043B3F5404F1FD1294B6B
:1017F800294A0344934242D9284B294A0344934235
:101808003FD9284B984240D80020274A136823F034
:101818000F0303431360136803F00F03984232D099
:10182800136803F00F03C01A18BF012070479369AB
:1018380003F44043B3F5004F0ED11C4A1C4B02443D
:101848009A421AD91B4A02449A4218D91A4A02449F
:101858009A4216D90133D5E7184A194B02449A42DD
:1018680009D9184A02449A4207D9174A02449A42A7
:1018780005D9164AEBE70420C7E70320C5E702208D
:10188800C3E70120C1E70346CDE70120704700BF49
:1018980000480258FFC4A7F7FFE0F5057FE2D3FB35
:1018A8007F1D2C04801D2C0400200052BF4C2AF6FA
:1018B800BF3B47037F8871F93FC4B8FCFF6A45F511
:1018C8003FA5AE023F10F4F77FB5A2FABF5A51FD0B
:1018D80038B503464FF01002EFF3118582F31288F2
:1018E800BFF36F8F074A01F0E7FB1458184601F061
:1018F8001DFB85F31188BFF36F8F2046BDE8384084
:10190800FFF74EB808000000104B70B553F82040A0
:10191800013053F82060A64200D870BDD4E90035E4
:1019280095B153B12846984738B10028EB68B8BF3D
:101938004042FF28A8BFFF201870EA68537843F098
:10194800010353700834E6E79847FBE7703900084D
:101958000122032008B5094B1A70FFF7D5FF00F0E4
:101968008DFC0420FFF7D0FF00F010F9FEF790FC83
:10197800034A137B23F00103137308BD41030024BA
:101988002001002406480021064A08B5121A01F071
:10199800D0FA0548054A0021121A01F0CAFA08BD12
:1019A80090000024440300240000002000000020D0
:1019B80070B5002386B001221A4E019304461A4DD1
:1019C80006EBC0161949CDE904230F22CDE90232EE
:1019D80014234FF4A07203FB00554FF4C070144B4E
:1019E80000FB04113046009500F090F8737B114A13
:1019F80023F00403EE602C7473734FF4046304FB48
:101A0800033313446B60BFF35B8F0B4B53E8001F2A
:101A1800013143E80012002AF8D1BFF35B8F06B00A
:101A280070BD00BFA000002410030024C00B0024D8
:101A3800432F0008800300240C03002480B50020F5
:101A4800A6B0FFF761FF2A4B83F30888294D0024CD
:101A5800F023294E294F85F82230EC772C766C76C6
:101A6800AC7685F820406B6A43F4E0236B62FEF79E
:101A780063FFFEF7C9FC4FF0FF33AB62EB62FFF781
:101A88003DF81F4DFEF7A2FF40F201132194ADF877
:101A9800243006ABCDE91E44B36001F032FA0120D0
:101AA800FFF732FF0220FFF72FFF00F02BFA154B4C
:101AB80075614FF480620593012313492846009409
:101AC800CDE90343CDE901443B4600F01FF86A7BAA
:101AD8000646284622F004026A7301F04CFA2046B2
:101AE800FFF766FF3A4631462846FEF775FD00BF08
:101AF800C00B002400ED00E0100300245919000871
:101B080020010024F53A0008400D00242DE9F04397
:101B1800073285B0994600F1580322F007060027DE
:101B28008846044606F140058760C7730D44C0E93E
:101B38001633109B29460373042343730F9BC0E994
:101B480006778373FEF778FD08F1400307304146B6
:101B5800C4E9183620F007000E9BA0662D1A0293E0
:101B680020460D9B2A4601930C9B00934B46FEF79B
:101B780007FD054B67659B6803B1DB6E2846E36686
:101B880005B0BDE8F08300BF10030024F0B5214C78
:101B980087B0214D26462C34AE420BD31D4C0A2665
:101BA8001E4F00F07FF9AC4220D307B0BDE8F040EB
:101BB80000F08CB954F8043C059354F80C3C049399
:101BC80054F8103C039354F8143C029354F8183C0E
:101BD800019354F81C3C009354E9092354E90B0180
:101BE800FFF794FF54F82C3C5E65D3E7626A531CF8
:101BF80009D022EAE272206882FB062352EA030136
:101C080003D100F031F92C34CDE73946183000F013
:101C180053FAF8E74837000848370008E32F000868
:101C2800C3897F2B12D80A4B1B6863B1094B90F903
:101C38000E201B689A4209DB437BDB0606D1064B64
:101C4800C31A18BF012303F0010070470023FAE705
:101C58003803002434030024A0000024044B01228C
:101C6800C01A044BC0105843034B1A54704700BFA6
:101C7800A0010024ABAAAAAA420300240E4B70B507
:101C88001E7C05460D4C06EB460304EBC3042046B8
:101C980001F0BDF90A4B002228469A55FFF7C0FF0C
:101CA80048B1084B204608491A68013ABDE8704017
:101CB800D31700F001BA70BD10030024A00100245E
:101CC8004203002438030024651C000838B50D4D74
:101CD8002B4653F8184F9C4200D004B9EC68AB6807
:101CE80038B95A7BD20604D1A26912B9DA897F2A97
:101CF80005D89C4202D02046FFF7C0FF23466B61FF
:101D080038BD00BF1003002470B590F90D200146BE
:101D1800437B002A04DA03F07F03437301F019F9C7
:101D28004B7B154A63F07F0310464B7350F8183FFE
:101D3800D469834208BF002323B9C1E900042160A4
:101D4800D1610CE091F90E5093F90E60B5420ED0B6
:101D5800AE420CDD5868C1E90030016059609068F6
:101D6800431A5842BDE870405841FFF7AFBF9C4244
:101D7800E3D01B68E0E700BF1003002470B490F9BB
:101D88000D30427B002B29DBD30627D183692BBB7F
:101D980062F07F02124942730A4652F8184F944281
:101DA80018BF2346CC6923B9C0E900242060C86164
:101DB8000CE090F90E5093F90E60B5420AD0AE428D
:101DC80008DD5A68C0E9003210605860002070BC15
:101DD800FFF77CBFA342E7D01B68E4E770BC7047FD
:101DE8001003002438B54FF01003EFF3118583F387
:101DF8001288BFF36F8F104B104A9C681068A0427E
:101E080006D1FFF73BFF85F31188BFF36F8F38BD0D
:101E180000211B7C11600A4AD35C002BF3D02046BA
:101E2800FFF7FEFE0028EED0637BDB0602D12046DA
:101E3800FFF76AFF2046E4E710030024300300247C
:101E48004203002449B9EFF3058030B9054B5A69BC
:101E58009B689A4201D0FEF737BB81F31188BFF324
:101E68006F8F70471003002410B54FF01002EFF386
:101E7800118482F31288BFF36F8F427B510704D419
:101E880084F31188BFF36F8F10BD22F004024273F0
:101E9800FFF774FF21460248BDE81040FFF7D2BFA4
:101EA800430300244FF01003EFF3118183F31288EA
:101EB800BFF36F8F044B9A68D37B013BD37381F3D5
:101EC8001188BFF36F8F70471003002410B54FF0CF
:101ED8001003EFF3118483F31288BFF36F8F084B5D
:101EE80000209A68D37B0133D373FFF7EFFE84F3A6
:101EF8001188BFF36F8FBDE8104001F07EB800BFB6
:101F080010030024024B03F11802C3E906227047AC
:101F180010030024014B9868704700BF1003002489
:101F28002DE9F04104464FF01003EFF3118683F3D7
:101F38001288BFF36F8F037BD9070BD586F31188FF
:101F4800BFF36F8F404080F311884FF0040002DF29
:101F5800BDE8F081437B1A0704D586F31188BFF3E7
:101F68006F8FF5E723F0200242F00801D20920D153
:101F78004173A36813B1204600F0F3FF04F158073A
:101F88004FF0000804F1180001F041F8A56DBD42BA
:101F980000D0B5B90120FFF799FE104B9B68A3420A
:101FA800DBD1EFF30583002BD7D13046FEF78CFA4F
:101FB800D3E703F05F0343F00803437300F0C9FF5E
:101FC800D7E7284600F0CDFF05F1180001F01FF80B
:101FD8002846C5F87880FFF7D1FED7E7100300241C
:101FE80009480A4A0A49121A08B500F0A4FF094A22
:101FF80009490A4800F09FFF09480A4A0A49121A83
:10200800BDE8084000F097BF000000248A000024C3
:10201800503B000800000000503B0008000000246E
:102028000000002000000020DA3B0008034B1B687A
:102038000BB9FFF7B5BB0020704700BF3C03002475
:102048000E4B10B51C689C4204D1FFF7EFFF6FF0F0
:10205800004010BDFFF7EAFF002CF8D0D4E90432A5
:102068001B1A62EBE072B3F1004F72F10001EEDA75
:10207800002AACBF18460020EBE700BF440000244C
:1020880030B570B10B4B5B6898420AD0036843B116
:10209800D3E90421D0E90445121941EB0501C3E94C
:1020A8000421D0E9003213605A600023C0E90033EC
:1020B80030BD00BF44000024B3F1FF3F08BFB2F1B8
:1020C800FF3FF8B504461D4616465CD081604FF0C8
:1020D8001003EFF3118783F31288BFF36F8F013278
:1020E80075F1FF3324DA2D496FF00103D1E900209F
:1020F8009B1A4FF0FF3262EB00009E1B60EB05005D
:10210800012E70F1000301DA01260020C4E9046001
:10211800234ED6F800C07568B44508BF4FF0000CD0
:10212800BCF1000F0DD1C4E900652C6074601CE09F
:10213800FFF77CFF013645F10005361845EBE070E6
:10214800E4E7DCE90420D4E90431934271EB000EA2
:102158001ADAD21ADCF8043060EB0100CCE904206A
:10216800C4E900C31C60CCF804403368B34206D00D
:102178009C4204D1FFF764FF0021FFF797FA87F329
:102188001188BFF36F8FF8BD9B1A61EB0001AC4556
:10219800C4E90431C7D0DCF800C0C1E7B8010024A5
:1021A800440000242DE9F84F4FF01003EFF3118C91
:1021B80083F31288BFF36F8FDFF8B4A00024DFF831
:1021C800B49000252C4FC9F80000DAF800005045FB
:1021D80008BF0020D9F80030E046D7E9002180B3D5
:1021E8004FEAE37ED0E9046CB3427EEB0C0B05DAD0
:1021F800F61A6CEB0E04C0E9046422E0B21841EB55
:10220800E671C0E90445C7E90021FFF739FF88F303
:102218001188BFF36F8F836898474FF01003EFF36F
:10222800118883F31288BFF36F8FD9F80030C44642
:10223800DAF800009B1B5045C9F80030CAD1D7E92D
:1022480000219A184FF0000441EBE373C9F80040ED
:10225800C7E90023FFF7F4FE2146FFF727FA88F3C2
:102268001188BFF36F8FBDE8F84FFFF7BBBD00BF04
:10227800440000243C030024B8010024014800F075
:1022880060BA00BFFD3A00080FB407B5064B04AAB0
:10229800186852F8041B019200F008F803B05DF8C2
:1022A80004EB04B0704700BFCC3700082DE9F04FAD
:1022B8008BB04368019383789F078246144640F1A8
:1022C8000981002591F80080B8F1000F00F0048121
:1022D800B8F1250F0BD04B1C02930135019B5146D9
:1022E800404698470028C0F2F5800299EAE791F83D
:1022F80001808B1CB8F1250F0293EED0002399467C
:102308001F461F2F39D8A8F12002102A0AD8DFE863
:1023180002F02B0909310909092109090929092E9E
:1023280009091F00A8F13002092A32D9B8F12A0F89
:1023380035D1780654F8042B00F18180002AA7BF14
:1023480047F020079146C2F1000947F0280701E04D
:1023580047F00107029A12F8018B0292B8F1000FB8
:10236800CFD132E047F0020747F00407F2E747F021
:102378000807EFE747F01007ECE77F2F18D8A8F118
:102388003002092AD2D87E0603D50A2101FB03238D
:10239800E0E70A2101FB092947F02007DAE7B8F14D
:1023A8002E0F05D1790600F1978047F04007D1E755
:1023B800B8F16C0F32D02AD8B8F1680F35D0B8F11F
:1023C8006A0F39D0B8F14C0F36D0002B48F02002F4
:1023D800B8BF27F04007A2F16501BCBFBFB2002318
:1023E800022901D9612A2CD1073424F007049A4E16
:1023F80008344FF00708380763D506EB080B374653
:102408005F4560D1AE1B3744A9EB080954E1B8F128
:10241800740F9FD0B8F17A0F9CD0D6E73A0648BF20
:1024280047F4007747F0800794E7FE0548BF47F474
:10243800007747F480778DE747F420778AE71346DB
:1024480088E7A8F16301122900F2CF80DFE811F0D4
:1024580013004800CD00CD00CD00CD004800CD00D0
:10246800CD00CD00CD00CD00DF00C700CD00CD00F0
:102478001B00CD00960054F8043B8DF81C304FF03B
:10248800010807AEB7E754F8046B744A002E08BF7A
:10249800164617F0400F14BF19464FF0FF3130466B
:1024A80000F0CBFD8046A6E7019B514620209847C7
:1024B80000280FDB013FB845F6D34D44ED1BB94664
:1024C8009BE74F46F7E717F8010B019B51469847E2
:1024D800002895DA4FF0FF3528460BB0BDE8F08F9D
:1024E800390637D5BA0545BF073424F0070454F830
:1024F800040B54F8080B27F010060028B6B232DA9D
:10250800404246F48066039307AF0A22394600F03A
:10251800A0FD7206039BA0EB07074BD526F001012F
:10252800BB4289B240F38A80B8F1000F00F0828084
:1025380016F01002039240F083809B460E4640F24C
:10254800064116EA010203921EBF00220BF1010B9D
:10255800039238E0FE0554F8040BCCD5B9054CBFFE
:1025680040B200B2C7E7CED17A06CCD5002BCAD18B
:1025780027F01107BEB21F469B46E0E727F0100779
:10258800BFB20A223E0646D5B80545BF073424F037
:10259800070454F8040B54F8080B002844D127F01A
:1025A80016067906B6B242D5002B40D127F0170798
:1025B800BEB21F4616F0100203924AD0B8F1000FBF
:1025C80045D107F1010B31075CD4F20705D5D94590
:1025D80075DDA9EB0B02D319CB465A464CE047F000
:1025E800100710224FF07808CCE7782A06D1B8F106
:1025F800580F14BF10224FF40472C3E7019B5146D1
:10260800252098470028FFF665AF023566E60822C0
:102618004FF00008B6E7F90554F8040BBDD5BE0520
:102628004CBFC0B280B2B8E727F00607BEB203932A
:1026380007AF6BE726F01106B6B29DE70E46B9E77D
:1026480038460E461F4607F1020B0746BBE73846D9
:10265800F9E7BB4673E700BF463B00083F3B00086D
:10266800CDE904325146019B202098470028FFF607
:1026780031AF059A049B01329145F1DCA5EB0B01C2
:102688008D189346039A32B303935146019B302029
:1026980098470028FFF61EAF039BB8F1000F10D132
:1026A80001355E19711B8F4227DB3E460DF11C0870
:1026B80066BB2F44A9EB0B093D46B94438E03B46BD
:1026C8008BE70393023551464046019B9847002803
:1026D800039BE6DAFEE640F206410E42E1D016F030
:1026E800020F14BF2B20202016F4806F039305F1EE
:1026F8000105514618BF2D20E7E7019B51463020C0
:102708009847002805F10105CCDAE3E6013E019B74
:1027180018F80600514698470028C9DADAE6019BFE
:10272800514620209847002805F10105FFF6D2AE52
:10273800A9EB0503002BF2DCD7E500BF70470020AA
:1027480070470FB407B504A951F8040B0191FDF7C0
:10275800B7FD03B05DF804EB04B07047836800EB85
:10276800C101B3F5004F2CBF51F8220031F8120017
:10277800704700EBC1018068B0F5004F2CBF41F8ED
:10278800223021F812307047012208B5FFF7E6FF22
:10279800D04008BD836800EBC101B3F5004F08D3F2
:1027A8004B681AB143F001034B60704723F00103F3
:1027B800FAE74B881AB143F001034B80704723F0C6
:1027C8000103FAE753000122FFF7D3BFB0F5004F2A
:1027D80001F1010034BF042308230833A0EBD30020
:1027E800B0FA80F0C0F11F0070472DE9F04186680B
:1027F8000D460446FFF7C8FFB6F5004F014601D362
:10280800012832D03046FFF7E1FF04EB80010E6962
:1028180096B90122E3688240204613430222E3600E
:102828002B460D612946FFF7A4FF032229462046BF
:10283800BDE8F041FFF79DBF022231462046FFF771
:102848008DFF2946034607462046FFF792FF0322DD
:10285800334629462046FFF78CFF39462B4620464B
:10286800FFF787FF02223146E1E7BDE8F081B2F5C4
:10287800802F2CBF08230423D21A2DE9F0418C188D
:10288800CD1D002625F0070524F00704641B05600C
:10289800EE60E40821462046AC60FFF797FF421D32
:1028A800013031464FEA820205F1100002F10707B4
:1028B800A2F11002B8BF3246FF0800F0F4FB31461F
:1028C8003A462846FFF77EFFA4EB07083346324610
:1028D80031462846FFF74DFF284631460122FFF7CB
:1028E80059FF42463946FFF76DFF3B4632463946A7
:1028F8002846FFF73EFF21462846FFF763FF434679
:10290800324621462846FFF734FF21462846012251
:10291800FFF740FF3946BDE8F041FFF766BF704753
:1029280000207047FEF7D4BF01460068FEF7D0BF0D
:1029380000210120FFF7F6BF08B5FDF79DFDBDE8B2
:102948000840FDF7A7BE08B5FEF708F9002008BD46
:1029580008B5062201210020FEF74EF900220620C4
:102968001146FDF773FD012107220846FEF744F9D9
:10297800002207201146FDF769FD082201210220E7
:10298800FEF73AF9002208201146FDF75FFD0922FB
:1029980001210320FEF730F9002209201146FDF736
:1029A80055FD0A2201210420FEF726F900220A20FB
:1029B8001146FDF74BFD052117220846FEF71CF9C5
:1029C800002217201146FDF741FD282206210A2082
:1029D800FEF712F9002228201146FDF737FD0020E6
:1029E80008BD1F2809DC4FF0B0410122D1F8803022
:1029F800824023EA0203C1F88030704703292ED8A9
:102A0800DFE801F0020F16224FF0B04301221968E7
:102A1800824021EA02011960596821EA02025A60DB
:102A2800704701224FF0B043824019681143F2E722
:102A38004FF0B04301225968824011435960196828
:102A480021EA02021A607047012303FA00F04FF0EE
:102A5800B0431A6802431A605A68104358607047B6
:102A68000B68A3F1D402202A09D803F1B0434968BE
:102A7800002003F511331A680A431A6070476FF093
:102A8800850070470B68A3F1D402202A0AD803F105
:102A9800B0434968002003F511331A6822EA01029D
:102AA8001A6070476FF085007047436800205B68C4
:102AB8001B690B60704743685B68586942400A406D
:102AC800424000205A617047436800205B68996162
:102AD80070474368090400205B6899617047436840
:102AE80000205A6853694B405361704710B5036919
:102AF8009868F8B1884219D1DC680868A1429860E2
:102B080000D1D860002008602AB19A680A60DA68A3
:102B1800996002B9D960002010E0814206D10868A6
:102B28002060D8688142EDD1DC60EBE7044600689C
:102B38000028F2D1002AE8D16FF0150010BD2DE968
:102B4800F04144680120C2F38016C2F3C11C6768D3
:102B580088408E4002F0300527EA0007C2F3412280
:102B6800202D46EA070600FA01F7666007EB470ED4
:102B7800D4F8088007FB0CFC07FB02F26FEA0E068C
:102B880028EA0E084CEA080CC4F808C0D4F80CC0AF
:102B98002CEA0E0C42EA0C02E2600CD1072912DC86
:102BA80007FA01F2206A8A40C2EB02115A4320EA6E
:102BB80001010A43226223682D091E407D433543E3
:102BC8002560BDE8F081020A616A52435243C2EBB4
:102BD80002105A4321EA00010A436262EBE738B562
:102BE800044690030D46134617D591070ED55A078C
:102BF8002ED55022D8060BD542F4007219031AD5E7
:102C0800616801234968AB408B610DE01022F1E750
:102C18009906F3D542F48062F0E7DA0313D5D806B3
:102C280013D4C3F340139A02606800232946FFF7C0
:102C380086FF002038BD5B03F6D501212046A94058
:102C4800FFF747FFF0E73022EEE74FF40072EBE7BB
:102C58006FF08500EEE70B4670B5896821B1012554
:102C68005E680C68854001B970BD8A682A4002D048
:102C78004B68304698471CB1236821461C46F2E74A
:102C88002346FAE7F8B51F46044640680E4615463F
:102C9800FFF755FF112F07D101212B0501FA06F186
:102CA80004D563685B6899610020F8BD2046FFF78A
:102CB80010FFF9E730B5036813600579046804EB81
:102CC800C504A34202D36FF0010030BD5C798C4289
:102CD80001D00833F0E70020F7E74368C1F34B1051
:102CE80001F01F011B68C05801238B4003424FF0BD
:102CF800000014BF012300231370704710B5436808
:102D0800C1F34B1001F01F011A68012384588B404E
:102D180023438350002010BD10B54368C1F34B1402
:102D2800012201F01F0118688A40235823EA020390
:102D38002350002010BD38B504460D46FFF7DEFFCE
:102D480029462046FFF7E8FF002038BDB0F5805F30
:102D580007D0B0F1805F09D1002914BF01200220FB
:102D68007047002914BF032004207047002914BFAE
:102D780002200320704742681368D869D969C0F3F4
:102D8800C000C907D96948BF40F002008907D9695E
:102D980048BF40F004004907D96948BF40F0200007
:102DA800C90504D54FF4807140F008001962C107C5
:102DB80002D5136808211962830702D51368012117
:102DC8001962410702D5136802211962830602D5E8
:102DD800136804221A62704737B503690C464568C0
:102DE8001868E9688368DB688BB101AA98470028EE
:102DF8000DDB2A68136823F40043136001992B68DC
:102E08002CB101EB5401B1FBF4F189B2D96003B0E4
:102E180030BD10B540680268D3691B06FCD54FF079
:102E28001002EFF3118382F31288BFF36F8F0268E9
:102E3800D469240604D483F31188BFF36F8FEAE7BB
:102E4800916283F31188BFF36F8F10BD43681A68CE
:102E5800D069000701D5082010621B68DA6992065C
:102E680003D55B6A00200B7070474FF0FF30704746
:102E780010B5026904460B46526812680A60426837
:102E88001268126802F4C062B2F5806F33D0A2F5FE
:102E9800C060424242411A7162681268526802F484
:102EA8004052B2F5805F28D0B2F5405F27D0002AA3
:102EB8000CBF012203225A716268126810681168F7
:102EC80000F0102001F4C061FFF740FF98716268BC
:102ED80000201268926802F44072A2F540714A42DA
:102EE8004A41DA7161680968896811F4804F18BF2E
:102EF8000322DA7110BD0222CDE70022DBE70222AD
:102F0800D9E7704740B1C368587810F001001EBF78
:102F18001878B0FA80F0400970474FF01002EFF3CC
:102F2800118382F31288BFF36F8FFEE708B5FFF7AE
:102F3800F4FF00F0B8B800F0A8B808B54FF01002D8
:102F4800EFF3118382F31288BFF36F8FFDF762FAF4
:102F5800F4E7D0E9003213605A600023C0E9003377
:102F6800704708B5FFF7F5FF437B23F0020343736F
:102F78000023836008BD10B54FF01003EFF31184F0
:102F880083F31288BFF36F8FFEF7F8FE84F311887E
:102F9800BFF36F8F10BD38B504464FF01003EFF341
:102FA800118583F31288BFF36F8F437B13F0280FCB
:102FB8000BD183680BB1FFF7D4FF637B51B903F0E2
:102FC800FB0320466373FEF7D9FE85F31188BFF330
:102FD8006F8F38BD03F0EB03F3E701211838FFF7D3
:102FE800DABF034620B9EFF305820AB9FDF76CBAD8
:102FF80083F31188BFF36F8F70474FF01003EFF31F
:10300800118083F31288BFF36F8FFFF7EABF10B503
:103018004FF01002EFF3118482F31288BFF36F8F21
:1030280003683BB1FFF72CF8002084F31188BFF345
:103038006F8F10BD6FF01500F7E710B50246014419
:103048008A42134603D01C780132002CF8D1181A92
:1030580010BD930570B548BF22F4007204460846B7
:103068004CBF07212721B4FBF2F502FB1543DBB265
:10307800092B88BF5B18264688BFDBB23033B242C3
:1030880000F8013B2C46EED970BD0A44914200F18C
:10309800FF3300D1704710B511F8014B03F8014F09
:1030A8009142F9D110BD02440346934200D17047C2
:1030B80003F8011BF9E700000148006870470000A9
:0430C800C00100241F
:1030CC002D03000800000000E50D00086C3100081D
:1030DC0029290008000000000000000080310008D1
:1030EC000D100008483200080D1000085C32000872
:1030FC000D100008203200085929000894310008EE
:10310C000D100008343200080D1000087032000851
:10311C000D1000080C3200080D100008F8310008E2
:10312C000D100008E43100080D100008D031000823
:10313C000D100008BC3100080D100008A831000863
:10314C000513000884320008BD0F000800000000C1
:10315C002D160008000000008D0B00080000000078
:10316C00223A000800000000140000246E00002425
:10317C0000000000C93A0008FC38000800390008BB
:10318C008600002400000000043A00080000000043
:10319C00000000006C000024D40100242F3A000829
:1031AC00D0370008AC38000870000024540200240A
:1031BC003D3A0008E4370008AC38000872000024DF
:1031CC00640200244B3A0008F8370008AC380008B9
:1031DC007400002474020024593A00080C380008CA
:1031EC00AC3800087600002484020024673A0008FA
:1031FC0020380008AC380008780000249402002421
:10320C00753A000834380008AC3800087A000024FD
:10321C00A4020024833A000848380008AC3800089F
:10322C007C000024B4020024913A00085C380008A9
:10323C00AC3800087E000024C40200249F3A000829
:10324C0070380008AC38000880000024D402002438
:10325C00AD3A000884380008AC380008820000241D
:10326C00E4020024BB3A000898380008AC38000887
:10327C0084000024F4020024DA3A00081039000813
:0C328C005839000888000024300000249D
:103298000000000039290008000000003929000852
:1032A8000000000039290008000000003929000842
:1032B8000000000039290008000000003929000832
:1032C800023A0008B10B0008003A0008B10B0008E8
:1032D800FE390008B10B0008FC390008B10B0008E2
:1032E800FA390008B10B000800000000392900086D
:1032F80000000000392900080000000039290008F2
:1033080000000000392900080000000039290008E1
:1033180000000000392900080000000039290008D1
:1033280000000000392900080000000039290008C1
:1033380000000000392900080000000039290008B1
:103348000000000039290008F8390008B10B00080E
:103358000000000039290008000000003929000891
:103368000000000039290008000000003929000881
:103378000000000039290008000000003929000871
:103388000000000039290008000000003929000861
:103398000000000039290008000000003929000851
:1033A8000000000039290008000000003929000841
:1033B8000000000039290008000000003929000831
:1033C8000000000039290008000000003929000821
:1033D800F6390008B10B0008000000003929000880
:1033E8000000000039290008000000003929000801
:1033F80000000000392900080000000039290008F1
:1034080000000000392900080000000039290008E0
:1034180000000000392900080000000039290008D0
:1034280000000000392900080000000039290008C0
:1034380000000000392900080000000039290008B0
:1034480000000000392900080000000039290008A0
:103458000000000039290008000000003929000890
:103468000000000039290008000000003929000880
:103478000000000039290008000000003929000870
:103488000000000039290008000000003929000860
:103498000000000039290008000000003929000850
:1034A8000000000039290008000000003929000840
:1034B8000000000039290008000000003929000830
:1034C8000000000039290008000000003929000820
:1034D8000000000039290008000000003929000810
:1034E8000000000039290008000000003929000800
:1034F80000000000392900080000000039290008F0
:1035080000000000392900080000000039290008DF
:1035180000000000392900080000000039290008CF
:1035280000000000392900080000000039290008BF
:1035380000000000392900080000000039290008AF
:10354800000000003929000800000000392900089F
:10355800000000003929000800000000392900088F
:10356800000000003929000800000000392900087F
:10357800000000003929000800000000392900086F
:10358800000000003929000800000000392900085F
:10359800000000003929000800000000392900084F
:1035A800000000003929000800000000392900083F
:1035B800000000003929000800000000392900082F
:1035C800000000003929000800000000392900081F
:1035D800000000003929000800000000392900080F
:1035E80000000000392900080000000039290008FF
:1035F80000000000392900080000000039290008EF
:1036080000000000392900080000000039290008DE
:1036180000000000392900080000000039290008CE
:1036280000000000392900080000000039290008BE
:1036380000000000392900080000000039290008AE
:10364800000000003929000800000000392900089E
:10365800000000003929000800000000392900088E
:10366800000000003929000800000000392900087E
:10367800000000003929000800000000392900086E
:10368800000000003929000800000000392900085E
:10369800000000003929000800000000392900084E
:1036A800000000003929000800000000392900083E
:1036B800000000003929000800000000392900082E
:1036C800000000003929000800000000392900081E
:1036D800000000003929000800000000392900080E
:1036E80000000000392900080000000039290008FE
:1036F80000000000392900080000000039290008EE
:1037080000000000392900080000000039290008DD
:1037180000000000392900080000000039290008CD
:1037280000000000392900080000000039290008BD
:1037380000000000392900080000000039290008AD
:10374800AD39000800000000F23900080000000050
:10375800FA3A000800000000EA3A000800000000F9
:10376800F40000000200000006000000783700089E
:1037780000000008BE3900082800020700000024E5
:10378800C439000824000B110000F01FC9390008D3
:103798002400041100000430D03900081A00081170
:1037A80000000430DE3900080E000401000000901B
:1037B800ED39000836000400000000240000000075
:1037C80000000B0604000024FFFF00000028025838
:1037D8000A000000E000000000040000FFFF0000F5
:1037E8000024025809000000E00000000002000068
:1037F800FFFF00000020025808000000E000000061
:1038080000010000FFFF0000001C02580700000034
:10381800E000000080000000FFFF000000180258D0
:1038280006000000E000000040000000FFFF00006C
:103838000014025805000000E0000000200000000D
:10384800FFFF00000010025804000000E000000024
:1038580010000000FFFF0000000C025803000000E9
:10386800E000000008000000FFFF00000008025808
:1038780002000000E000000004000000FFFF00005C
:103888000004025801000000E000000002000000EF
:10389800FFFF00000000025800000000E0000000E8
:1038A80001000000E72B0008B32A0008BF2A00081F
:1038B800D12A0008DB2A0008E72A00083D10000882
:1038C800F52A000800000000703200085C32000889
:1038D8004832000834320008203200080C32000850
:1038E800F8310008E4310008D0310008BC31000884
:1038F800A831000800440258E32C0008052D0008F0
:10390800212D00083F2D00080048004080310008A4
:103918001212000030390008010000000000000009
:103928000000000038390008E8000000000004002A
:103938004039000801000000483900080200000072
:103948000707000000020000270700000000000031
:10395800552E00081B2E00087F2D0008791400083A
:10396800792E0008F5FFFFFFCC300008CC300008A6
:103978005C310008643100086C3100086C310008C3
:103988000010000000306E75636C656F5F68373437
:10399800337A690048656C6C6F20576F726C6421CC
:1039A8002025730A0063627072696E74665F7061C5
:1039B800636B61676500464C415348005352414D63
:1039C8000053595354454D005352414D335F4554AC
:1039D800485F425546005352414D335F4554485F56
:1039E800444553430051535049006D7075000A0611
:1039F800050504010301020101010001696E7465F6
:103A080072727570742D636F6E74726F6C6C657200
:103A180040353830303030303000726363403538EC
:103A2800303234343030006770696F4035383032A6
:103A380032383030006770696F4035383032323490
:103A48003030006770696F4035383032323030308E
:103A5800006770696F403538303231433030006765
:103A680070696F40353830323138303000677069EE
:103A78006F403538303231343030006770696F400C
:103A88003538303231303030006770696F40353842
:103A9800303230433030006770696F40353830322B
:103AA80030383030006770696F4035383032303424
:103AB8003030006770696F40353830323030303020
:103AC8000072657365742D636F6E74726F6C6C65CC
:103AD800720073657269616C40343030303438304C
:103AE8003000756172745F73746D3332006D616993
:103AF8006E006F73002A2A2A20426F6F74696E67FE
:103B0800205A6570687972204F53206275696C6419
:103B1800207A65706879722D76332E342E302D33E5
:103B28003331362D67383361663733343966333489
:103B380062202A2A2A0A00286E756C6C29002A66D7
:083B48006C6F61742A0000009B
:103B500047270008000000004F290008000000006F
:103B600000000000692A00088D2A000800000000FB
:103B7000290D00080000000000000000A10C000852
:103B8000000000003800002400C201000001030012
:103B90000090D0034400002444000024FF00FF00F4
:103BA000FF00FF00FF00FF00FF00FF00FF00FF001D
:0C3BB000FF00FF00FF00FF00FF00FF000F
:103BBC0000000000000000000000000000000000F9
:0E3BCC000000000000000000000000000000EB
:043BDA0015E015E0FD
:040000050800097D69
:00000001FF
